{
  "_format": "hh-sol-artifact-1",
  "contractName": "TokenConverter",
  "sourceName": "contracts/TokenConverter.sol",
  "abi": [
    {
      "inputs": [
        {
          "internalType": "address",
          "name": "_auraToken",
          "type": "address"
        },
        {
          "internalType": "address",
          "name": "_usdc",
          "type": "address"
        }
      ],
      "stateMutability": "nonpayable",
      "type": "constructor"
    },
    {
      "anonymous": false,
      "inputs": [
        {
          "indexed": true,
          "internalType": "address",
          "name": "user",
          "type": "address"
        },
        {
          "indexed": false,
          "internalType": "uint256",
          "name": "auraAmount",
          "type": "uint256"
        },
        {
          "indexed": false,
          "internalType": "uint256",
          "name": "usdcAmount",
          "type": "uint256"
        },
        {
          "indexed": false,
          "internalType": "uint256",
          "name": "rate",
          "type": "uint256"
        }
      ],
      "name": "AuraToUsdcConverted",
      "type": "event"
    },
    {
      "anonymous": false,
      "inputs": [
        {
          "indexed": false,
          "internalType": "uint256",
          "name": "minAura",
          "type": "uint256"
        },
        {
          "indexed": false,
          "internalType": "uint256",
          "name": "maxAuraPerDay",
          "type": "uint256"
        }
      ],
      "name": "ConversionLimitsUpdated",
      "type": "event"
    },
    {
      "anonymous": false,
      "inputs": [
        {
          "indexed": true,
          "internalType": "address",
          "name": "token",
          "type": "address"
        },
        {
          "indexed": false,
          "internalType": "uint256",
          "name": "amount",
          "type": "uint256"
        }
      ],
      "name": "EmergencyWithdrawal",
      "type": "event"
    },
    {
      "anonymous": false,
      "inputs": [
        {
          "indexed": false,
          "internalType": "uint256",
          "name": "newRate",
          "type": "uint256"
        }
      ],
      "name": "ExchangeRateUpdated",
      "type": "event"
    },
    {
      "anonymous": false,
      "inputs": [
        {
          "indexed": true,
          "internalType": "address",
          "name": "previousOwner",
          "type": "address"
        },
        {
          "indexed": true,
          "internalType": "address",
          "name": "newOwner",
          "type": "address"
        }
      ],
      "name": "OwnershipTransferred",
      "type": "event"
    },
    {
      "anonymous": false,
      "inputs": [
        {
          "indexed": false,
          "internalType": "address",
          "name": "account",
          "type": "address"
        }
      ],
      "name": "Paused",
      "type": "event"
    },
    {
      "anonymous": false,
      "inputs": [
        {
          "indexed": false,
          "internalType": "uint256",
          "name": "auraReserve",
          "type": "uint256"
        },
        {
          "indexed": false,
          "internalType": "uint256",
          "name": "usdcReserve",
          "type": "uint256"
        }
      ],
      "name": "ReserveUpdated",
      "type": "event"
    },
    {
      "anonymous": false,
      "inputs": [
        {
          "indexed": false,
          "internalType": "address",
          "name": "account",
          "type": "address"
        }
      ],
      "name": "Unpaused",
      "type": "event"
    },
    {
      "anonymous": false,
      "inputs": [
        {
          "indexed": true,
          "internalType": "address",
          "name": "user",
          "type": "address"
        },
        {
          "indexed": false,
          "internalType": "uint256",
          "name": "usdcAmount",
          "type": "uint256"
        },
        {
          "indexed": false,
          "internalType": "uint256",
          "name": "auraAmount",
          "type": "uint256"
        },
        {
          "indexed": false,
          "internalType": "uint256",
          "name": "rate",
          "type": "uint256"
        }
      ],
      "name": "UsdcToAuraConverted",
      "type": "event"
    },
    {
      "inputs": [
        {
          "internalType": "address",
          "name": "",
          "type": "address"
        }
      ],
      "name": "auraDailyTotal",
      "outputs": [
        {
          "internalType": "uint256",
          "name": "",
          "type": "uint256"
        }
      ],
      "stateMutability": "view",
      "type": "function"
    },
    {
      "inputs": [],
      "name": "auraReserve",
      "outputs": [
        {
          "internalType": "uint256",
          "name": "",
          "type": "uint256"
        }
      ],
      "stateMutability": "view",
      "type": "function"
    },
    {
      "inputs": [],
      "name": "auraToken",
      "outputs": [
        {
          "internalType": "contract IAuraToken",
          "name": "",
          "type": "address"
        }
      ],
      "stateMutability": "view",
      "type": "function"
    },
    {
      "inputs": [
        {
          "internalType": "uint256",
          "name": "",
          "type": "uint256"
        }
      ],
      "name": "conversionHistory",
      "outputs": [
        {
          "internalType": "address",
          "name": "user",
          "type": "address"
        },
        {
          "internalType": "uint256",
          "name": "amountFrom",
          "type": "uint256"
        },
        {
          "internalType": "uint256",
          "name": "amountTo",
          "type": "uint256"
        },
        {
          "internalType": "string",
          "name": "conversionType",
          "type": "string"
        },
        {
          "internalType": "uint256",
          "name": "timestamp",
          "type": "uint256"
        },
        {
          "internalType": "uint256",
          "name": "rate",
          "type": "uint256"
        }
      ],
      "stateMutability": "view",
      "type": "function"
    },
    {
      "inputs": [
        {
          "internalType": "uint256",
          "name": "auraAmount",
          "type": "uint256"
        }
      ],
      "name": "convertAuraToUsdc",
      "outputs": [],
      "stateMutability": "nonpayable",
      "type": "function"
    },
    {
      "inputs": [
        {
          "internalType": "uint256",
          "name": "usdcAmount",
          "type": "uint256"
        }
      ],
      "name": "convertUsdcToAura",
      "outputs": [],
      "stateMutability": "nonpayable",
      "type": "function"
    },
    {
      "inputs": [
        {
          "internalType": "uint256",
          "name": "amount",
          "type": "uint256"
        }
      ],
      "name": "depositUsdcReserve",
      "outputs": [],
      "stateMutability": "nonpayable",
      "type": "function"
    },
    {
      "inputs": [
        {
          "internalType": "address",
          "name": "token",
          "type": "address"
        },
        {
          "internalType": "uint256",
          "name": "amount",
          "type": "uint256"
        }
      ],
      "name": "emergencyWithdraw",
      "outputs": [],
      "stateMutability": "nonpayable",
      "type": "function"
    },
    {
      "inputs": [],
      "name": "exchangeRate",
      "outputs": [
        {
          "internalType": "uint256",
          "name": "",
          "type": "uint256"
        }
      ],
      "stateMutability": "view",
      "type": "function"
    },
    {
      "inputs": [
        {
          "internalType": "uint256",
          "name": "usdcAmount",
          "type": "uint256"
        }
      ],
      "name": "getAuraForUsdc",
      "outputs": [
        {
          "internalType": "uint256",
          "name": "",
          "type": "uint256"
        }
      ],
      "stateMutability": "view",
      "type": "function"
    },
    {
      "inputs": [],
      "name": "getConversionHistoryLength",
      "outputs": [
        {
          "internalType": "uint256",
          "name": "",
          "type": "uint256"
        }
      ],
      "stateMutability": "view",
      "type": "function"
    },
    {
      "inputs": [
        {
          "internalType": "uint256",
          "name": "index",
          "type": "uint256"
        }
      ],
      "name": "getConversionRecord",
      "outputs": [
        {
          "components": [
            {
              "internalType": "address",
              "name": "user",
              "type": "address"
            },
            {
              "internalType": "uint256",
              "name": "amountFrom",
              "type": "uint256"
            },
            {
              "internalType": "uint256",
              "name": "amountTo",
              "type": "uint256"
            },
            {
              "internalType": "string",
              "name": "conversionType",
              "type": "string"
            },
            {
              "internalType": "uint256",
              "name": "timestamp",
              "type": "uint256"
            },
            {
              "internalType": "uint256",
              "name": "rate",
              "type": "uint256"
            }
          ],
          "internalType": "struct TokenConverter.ConversionRecord",
          "name": "",
          "type": "tuple"
        }
      ],
      "stateMutability": "view",
      "type": "function"
    },
    {
      "inputs": [],
      "name": "getExchangeRate",
      "outputs": [
        {
          "internalType": "uint256",
          "name": "",
          "type": "uint256"
        }
      ],
      "stateMutability": "view",
      "type": "function"
    },
    {
      "inputs": [
        {
          "internalType": "uint256",
          "name": "auraAmount",
          "type": "uint256"
        }
      ],
      "name": "getUsdcForAura",
      "outputs": [
        {
          "internalType": "uint256",
          "name": "",
          "type": "uint256"
        }
      ],
      "stateMutability": "view",
      "type": "function"
    },
    {
      "inputs": [
        {
          "internalType": "address",
          "name": "user",
          "type": "address"
        }
      ],
      "name": "getUserAuraDailyTotal",
      "outputs": [
        {
          "internalType": "uint256",
          "name": "",
          "type": "uint256"
        }
      ],
      "stateMutability": "view",
      "type": "function"
    },
    {
      "inputs": [
        {
          "internalType": "address",
          "name": "",
          "type": "address"
        }
      ],
      "name": "lastAuraConversionDay",
      "outputs": [
        {
          "internalType": "uint256",
          "name": "",
          "type": "uint256"
        }
      ],
      "stateMutability": "view",
      "type": "function"
    },
    {
      "inputs": [
        {
          "internalType": "address",
          "name": "",
          "type": "address"
        }
      ],
      "name": "lastUsdcConversionDay",
      "outputs": [
        {
          "internalType": "uint256",
          "name": "",
          "type": "uint256"
        }
      ],
      "stateMutability": "view",
      "type": "function"
    },
    {
      "inputs": [],
      "name": "limits",
      "outputs": [
        {
          "internalType": "uint256",
          "name": "minAuraAmount",
          "type": "uint256"
        },
        {
          "internalType": "uint256",
          "name": "maxAuraPerDay",
          "type": "uint256"
        },
        {
          "internalType": "uint256",
          "name": "minUsdcAmount",
          "type": "uint256"
        },
        {
          "internalType": "uint256",
          "name": "maxUsdcPerDay",
          "type": "uint256"
        }
      ],
      "stateMutability": "view",
      "type": "function"
    },
    {
      "inputs": [],
      "name": "owner",
      "outputs": [
        {
          "internalType": "address",
          "name": "",
          "type": "address"
        }
      ],
      "stateMutability": "view",
      "type": "function"
    },
    {
      "inputs": [],
      "name": "pause",
      "outputs": [],
      "stateMutability": "nonpayable",
      "type": "function"
    },
    {
      "inputs": [],
      "name": "paused",
      "outputs": [
        {
          "internalType": "bool",
          "name": "",
          "type": "bool"
        }
      ],
      "stateMutability": "view",
      "type": "function"
    },
    {
      "inputs": [],
      "name": "renounceOwnership",
      "outputs": [],
      "stateMutability": "nonpayable",
      "type": "function"
    },
    {
      "inputs": [],
      "name": "totalAuraConverted",
      "outputs": [
        {
          "internalType": "uint256",
          "name": "",
          "type": "uint256"
        }
      ],
      "stateMutability": "view",
      "type": "function"
    },
    {
      "inputs": [],
      "name": "totalUsdcConverted",
      "outputs": [
        {
          "internalType": "uint256",
          "name": "",
          "type": "uint256"
        }
      ],
      "stateMutability": "view",
      "type": "function"
    },
    {
      "inputs": [
        {
          "internalType": "address",
          "name": "newOwner",
          "type": "address"
        }
      ],
      "name": "transferOwnership",
      "outputs": [],
      "stateMutability": "nonpayable",
      "type": "function"
    },
    {
      "inputs": [],
      "name": "unpause",
      "outputs": [],
      "stateMutability": "nonpayable",
      "type": "function"
    },
    {
      "inputs": [
        {
          "internalType": "uint256",
          "name": "_minAuraAmount",
          "type": "uint256"
        },
        {
          "internalType": "uint256",
          "name": "_maxAuraPerDay",
          "type": "uint256"
        },
        {
          "internalType": "uint256",
          "name": "_minUsdcAmount",
          "type": "uint256"
        },
        {
          "internalType": "uint256",
          "name": "_maxUsdcPerDay",
          "type": "uint256"
        }
      ],
      "name": "updateConversionLimits",
      "outputs": [],
      "stateMutability": "nonpayable",
      "type": "function"
    },
    {
      "inputs": [
        {
          "internalType": "uint256",
          "name": "newRate",
          "type": "uint256"
        }
      ],
      "name": "updateExchangeRate",
      "outputs": [],
      "stateMutability": "nonpayable",
      "type": "function"
    },
    {
      "inputs": [],
      "name": "usdc",
      "outputs": [
        {
          "internalType": "contract IUSDCToken",
          "name": "",
          "type": "address"
        }
      ],
      "stateMutability": "view",
      "type": "function"
    },
    {
      "inputs": [
        {
          "internalType": "address",
          "name": "",
          "type": "address"
        }
      ],
      "name": "usdcDailyTotal",
      "outputs": [
        {
          "internalType": "uint256",
          "name": "",
          "type": "uint256"
        }
      ],
      "stateMutability": "view",
      "type": "function"
    },
    {
      "inputs": [],
      "name": "usdcReserve",
      "outputs": [
        {
          "internalType": "uint256",
          "name": "",
          "type": "uint256"
        }
      ],
      "stateMutability": "view",
      "type": "function"
    },
    {
      "inputs": [
        {
          "internalType": "uint256",
          "name": "amount",
          "type": "uint256"
        }
      ],
      "name": "withdrawUsdcReserve",
      "outputs": [],
      "stateMutability": "nonpayable",
      "type": "function"
    }
  ],
  "bytecode": "0x62989680600455610100604052670de0b6b3a7640000608081905269d3c21bcecceda100000060a0819052620f424060c081905264174876e80060e0819052600993909355600a91909155600b55600c553480156200005d57600080fd5b5060405162001eb338038062001eb38339810160408190526200008091620001f6565b6200008b3362000189565b600180556002805460ff191690556001600160a01b038216620000f55760405162461bcd60e51b815260206004820152601a60248201527f496e76616c6964204155524120746f6b656e206164647265737300000000000060448201526064015b60405180910390fd5b6001600160a01b0381166200014d5760405162461bcd60e51b815260206004820152601460248201527f496e76616c6964205553444320616464726573730000000000000000000000006044820152606401620000ec565b60028054610100600160a81b0319166101006001600160a01b0394851602179055600380546001600160a01b031916919092161790556200022e565b600080546001600160a01b038381166001600160a01b0319831681178455604051919092169283917f8be0079c531659141344cd1fd0a4f28419497f9722a3daafe3b4186f6b6457e09190a35050565b80516001600160a01b0381168114620001f157600080fd5b919050565b600080604083850312156200020a57600080fd5b6200021583620001d9565b91506200022560208401620001d9565b90509250929050565b611c75806200023e6000396000f3fe608060405234801561001057600080fd5b50600436106101f05760003560e01c80638456cb591161010f578063b62e86a1116100a2578063dba67ea711610071578063dba67ea714610447578063e6aa216c14610467578063eee9358f1461046f578063f2fde38b1461048257600080fd5b8063b62e86a1146103e1578063b9e205ae14610401578063bcef6dde14610414578063ce8231691461042757600080fd5b80639cc9ccb6116100de5780639cc9ccb6146103a5578063a20f872c146103bd578063a5b99deb146103d0578063afd03f85146103d857600080fd5b80638456cb5914610343578063860aefcf1461034b5780638da5cb5b1461038157806395ccea671461039257600080fd5b8063453a1e7511610187578063715018a611610156578063715018a6146102ff57806373e73fa414610307578063808af95f1461031a57806382c2c8751461033a57600080fd5b8063453a1e75146102b25780634be0d251146102d75780635c975abb146102e05780636a5809cc146102f657600080fd5b806331c55edb116101c357806331c55edb146102635780633ba0b9a9146102765780633e413bee1461027f5780633f4ba83a146102aa57600080fd5b806301573ea8146101f55780630ec1936e1461022857806311e306c41461023b5780631e98797214610250575b600080fd5b610215610203366004611870565b60106020526000908152604090205481565b6040519081526020015b60405180910390f35b610215610236366004611892565b610495565b61024e610249366004611892565b6104b8565b005b61021561025e366004611870565b610970565b61024e6102713660046118ab565b6109c8565b61021560045481565b600354610292906001600160a01b031681565b6040516001600160a01b03909116815260200161021f565b61024e610a23565b6102c56102c0366004611892565b610a35565b60405161021f96959493929190611923565b61021560075481565b60025460ff16604051901515815260200161021f565b61021560065481565b61024e610b13565b610215610315366004611892565b610b25565b610215610328366004611870565b600f6020526000908152604090205481565b61021560085481565b61024e610b39565b600954600a54600b54600c546103619392919084565b60408051948552602085019390935291830152606082015260800161021f565b6000546001600160a01b0316610292565b61024e6103a0366004611965565b610b49565b6002546102929061010090046001600160a01b031681565b61024e6103cb366004611892565b610c7c565b601154610215565b61021560055481565b6103f46103ef366004611892565b610dd8565b60405161021f919061198f565b61024e61040f366004611892565b610f7d565b61024e610422366004611892565b611008565b610215610435366004611870565b600e6020526000908152604090205481565b610215610455366004611870565b600d6020526000908152604090205481565b600454610215565b61024e61047d366004611892565b6110ff565b61024e610490366004611870565b611499565b6004546000906104a883620f4240611a07565b6104b29190611a1e565b92915050565b6104c061150f565b6104c8611568565b60095481101561051f5760405162461bcd60e51b815260206004820152601960248201527f42656c6f77206d696e696d756d204155524120616d6f756e740000000000000060448201526064015b60405180910390fd5b6002546040516370a0823160e01b8152336004820152829161010090046001600160a01b0316906370a0823190602401602060405180830381865afa15801561056c573d6000803e3d6000fd5b505050506040513d601f19601f820116820180604052508101906105909190611a40565b10156105de5760405162461bcd60e51b815260206004820152601960248201527f496e73756666696369656e7420415552412062616c616e6365000000000000006044820152606401610516565b60006105ed6201518042611a1e565b336000908152600f6020526040902054909150811461062657336000908152600d60209081526040808320839055600f90915290208190555b336000908152600d6020526040812054610641908490611a59565b600a549091508111156106965760405162461bcd60e51b815260206004820152601e60248201527f45786365656473206461696c7920636f6e76657273696f6e206c696d697400006044820152606401610516565b6004546000906106a985620f4240611a07565b6106b39190611a1e565b6003546040516370a0823160e01b815230600482015291925082916001600160a01b03909116906370a0823190602401602060405180830381865afa158015610700573d6000803e3d6000fd5b505050506040513d601f19601f820116820180604052508101906107249190611a40565b10156107725760405162461bcd60e51b815260206004820152601a60248201527f496e73756666696369656e7420555344432072657365727665730000000000006044820152606401610516565b600254604051630852cd8d60e31b8152600481018690526101009091046001600160a01b0316906342966c6890602401600060405180830381600087803b1580156107bc57600080fd5b505af11580156107d0573d6000803e3d6000fd5b505060035460405163a9059cbb60e01b8152336004820152602481018590526001600160a01b03909116925063a9059cbb91506044016020604051808303816000875af1158015610825573d6000803e3d6000fd5b505050506040513d601f19601f820116820180604052508101906108499190611a6c565b61088c5760405162461bcd60e51b81526020600482015260146024820152731554d110c81d1c985b9cd9995c8819985a5b195960621b6044820152606401610516565b336000908152600d60205260408120839055600580548692906108b0908490611a8e565b9250508190555080600660008282546108c99190611a8e565b9250508190555083600760008282546108e29190611a59565b925050819055506109193385836040518060400160405280600c81526020016b617572615f746f5f7573646360a01b8152506115ae565b60045460408051868152602081018490529081019190915233907fa9c81619f2734db9d730346b77256032554ec873e6cf7da474746252902e2b47906060015b60405180910390a250505061096d60018055565b50565b6000806109806201518042611a1e565b6001600160a01b0384166000908152600f602052604090205490915081146109ab5750600092915050565b50506001600160a01b03166000908152600d602052604090205490565b6109d06116d2565b6009849055600a839055600b829055600c81905560408051858152602081018590527fac0de6374cb974d6724274787df3dcbfbc3ad92055143d5fde6a3c5db52fd451910160405180910390a150505050565b610a2b6116d2565b610a3361172c565b565b60118181548110610a4557600080fd5b600091825260209091206006909102018054600182015460028301546003840180546001600160a01b03909416955091939092909190610a8490611aa1565b80601f0160208091040260200160405190810160405280929190818152602001828054610ab090611aa1565b8015610afd5780601f10610ad257610100808354040283529160200191610afd565b820191906000526020600020905b815481529060010190602001808311610ae057829003601f168201915b5050505050908060040154908060050154905086565b610b1b6116d2565b610a33600061177e565b6000620f4240600454836104a89190611a07565b610b416116d2565b610a336117ce565b610b516116d2565b610b5961150f565b6001600160a01b038216610b9f5760405162461bcd60e51b815260206004820152600d60248201526c24b73b30b634b2103a37b5b2b760991b6044820152606401610516565b60405163a9059cbb60e01b8152336004820152602481018290526001600160a01b0383169063a9059cbb906044016020604051808303816000875af1158015610bec573d6000803e3d6000fd5b505050506040513d601f19601f82011682018060405250810190610c109190611a6c565b610c2c5760405162461bcd60e51b815260040161051690611adb565b816001600160a01b03167f23d6711a1d031134a36921253c75aa59e967d38e369ac625992824315e204f2082604051610c6791815260200190565b60405180910390a2610c7860018055565b5050565b610c846116d2565b610c8c61150f565b60008111610cdc5760405162461bcd60e51b815260206004820152601d60248201527f416d6f756e74206d7573742062652067726561746572207468616e20300000006044820152606401610516565b6003546040516323b872dd60e01b8152336004820152306024820152604481018390526001600160a01b03909116906323b872dd906064016020604051808303816000875af1158015610d33573d6000803e3d6000fd5b505050506040513d601f19601f82011682018060405250810190610d579190611a6c565b610d735760405162461bcd60e51b815260040161051690611adb565b8060066000828254610d859190611a59565b90915550506005546006546040517f32dc813d3f262a05478ad1165d5701040e411d9a6e1684c8c2da1c8e6f3b802292610dc792908252602082015260400190565b60405180910390a161096d60018055565b610e1a6040518060c0016040528060006001600160a01b0316815260200160008152602001600081526020016060815260200160008152602001600081525090565b6011548210610e615760405162461bcd60e51b8152602060048201526013602482015272496e646578206f7574206f6620626f756e647360681b6044820152606401610516565b60118281548110610e7457610e74611b04565b90600052602060002090600602016040518060c00160405290816000820160009054906101000a90046001600160a01b03166001600160a01b03166001600160a01b031681526020016001820154815260200160028201548152602001600382018054610ee090611aa1565b80601f0160208091040260200160405190810160405280929190818152602001828054610f0c90611aa1565b8015610f595780601f10610f2e57610100808354040283529160200191610f59565b820191906000526020600020905b815481529060010190602001808311610f3c57829003601f168201915b50505050508152602001600482015481526020016005820154815250509050919050565b610f856116d2565b60008111610fcd5760405162461bcd60e51b8152602060048201526015602482015274496e76616c69642065786368616e6765207261746560581b6044820152606401610516565b60048190556040518181527f388f446e9526fe5c9af20a5919b342370c8a7c0cb05245afe1e545658fa3cdba9060200160405180910390a150565b6110106116d2565b61101861150f565b60065481111561105c5760405162461bcd60e51b815260206004820152600f60248201526e45786365656473207265736572766560881b6044820152606401610516565b60035460405163a9059cbb60e01b8152336004820152602481018390526001600160a01b039091169063a9059cbb906044016020604051808303816000875af11580156110ad573d6000803e3d6000fd5b505050506040513d601f19601f820116820180604052508101906110d19190611a6c565b6110ed5760405162461bcd60e51b815260040161051690611adb565b8060066000828254610d859190611a8e565b61110761150f565b61110f611568565b600b548110156111615760405162461bcd60e51b815260206004820152601960248201527f42656c6f77206d696e696d756d205553444320616d6f756e74000000000000006044820152606401610516565b6003546040516370a0823160e01b815233600482015282916001600160a01b0316906370a0823190602401602060405180830381865afa1580156111a9573d6000803e3d6000fd5b505050506040513d601f19601f820116820180604052508101906111cd9190611a40565b101561121b5760405162461bcd60e51b815260206004820152601960248201527f496e73756666696369656e7420555344432062616c616e6365000000000000006044820152606401610516565b600061122a6201518042611a1e565b33600090815260106020526040902054909150811461126357336000908152600e60209081526040808320839055601090915290208190555b336000908152600e602052604081205461127e908490611a59565b600c549091508111156112d35760405162461bcd60e51b815260206004820152601e60248201527f45786365656473206461696c7920636f6e76657273696f6e206c696d697400006044820152606401610516565b6000620f4240600454856112e79190611a07565b6112f19190611a1e565b6003546040516323b872dd60e01b8152336004820152306024820152604481018790529192506001600160a01b0316906323b872dd906064016020604051808303816000875af1158015611349573d6000803e3d6000fd5b505050506040513d601f19601f8201168201806040525081019061136d9190611a6c565b6113c85760405162461bcd60e51b815260206004820152602660248201527f55534443207472616e73666572206661696c6564202d20636865636b20616c6c6044820152656f77616e636560d01b6064820152608401610516565b336000908152600e60205260408120839055600580548392906113ec908490611a59565b9250508190555083600660008282546114059190611a59565b92505081905550836008600082825461141e9190611a59565b925050819055506114553385836040518060400160405280600c81526020016b757364635f746f5f6175726160a01b8152506115ae565b60045460408051868152602081018490529081019190915233907f2a09ec43d13cb5548fbf195198e38df21d9d8089e4c2c7b09dbc2742033ba23490606001610959565b6114a16116d2565b6001600160a01b0381166115065760405162461bcd60e51b815260206004820152602660248201527f4f776e61626c653a206e6577206f776e657220697320746865207a65726f206160448201526564647265737360d01b6064820152608401610516565b61096d8161177e565b6002600154036115615760405162461bcd60e51b815260206004820152601f60248201527f5265656e7472616e637947756172643a207265656e7472616e742063616c6c006044820152606401610516565b6002600155565b60025460ff1615610a335760405162461bcd60e51b815260206004820152601060248201526f14185d5cd8589b194e881c185d5cd95960821b6044820152606401610516565b6040805160c0810182526001600160a01b038681168252602082018681529282018581526060830185815242608085015260045460a08501526011805460018101825560009190915284517f31ecc21a745e3968a04e9570e4425bc18fa8019c68028196b546d1669c200c68600690920291820180546001600160a01b0319169190951617845594517f31ecc21a745e3968a04e9570e4425bc18fa8019c68028196b546d1669c200c6986015590517f31ecc21a745e3968a04e9570e4425bc18fa8019c68028196b546d1669c200c6a85015551919290917f31ecc21a745e3968a04e9570e4425bc18fa8019c68028196b546d1669c200c6b909101906116b59082611b7f565b506080820151816004015560a08201518160050155505050505050565b6000546001600160a01b03163314610a335760405162461bcd60e51b815260206004820181905260248201527f4f776e61626c653a2063616c6c6572206973206e6f7420746865206f776e65726044820152606401610516565b61173461180b565b6002805460ff191690557f5db9ee0a495bf2e6ff9c91a7834c1ba4fdd244a5e8aa4e537bd38aeae4b073aa335b6040516001600160a01b03909116815260200160405180910390a1565b600080546001600160a01b038381166001600160a01b0319831681178455604051919092169283917f8be0079c531659141344cd1fd0a4f28419497f9722a3daafe3b4186f6b6457e09190a35050565b6117d6611568565b6002805460ff191660011790557f62e78cea01bee320cd4e420270b5ea74000d11b0c9f74754ebdbfc544b05a2586117613390565b60025460ff16610a335760405162461bcd60e51b815260206004820152601460248201527314185d5cd8589b194e881b9bdd081c185d5cd95960621b6044820152606401610516565b80356001600160a01b038116811461186b57600080fd5b919050565b60006020828403121561188257600080fd5b61188b82611854565b9392505050565b6000602082840312156118a457600080fd5b5035919050565b600080600080608085870312156118c157600080fd5b5050823594602084013594506040840135936060013592509050565b6000815180845260005b81811015611903576020818501810151868301820152016118e7565b506000602082860101526020601f19601f83011685010191505092915050565b60018060a01b038716815285602082015284604082015260c06060820152600061195060c08301866118dd565b60808301949094525060a00152949350505050565b6000806040838503121561197857600080fd5b61198183611854565b946020939093013593505050565b6020815260018060a01b03825116602082015260208201516040820152604082015160608201526000606083015160c060808401526119d160e08401826118dd565b9050608084015160a084015260a084015160c08401528091505092915050565b634e487b7160e01b600052601160045260246000fd5b80820281158282048414176104b2576104b26119f1565b600082611a3b57634e487b7160e01b600052601260045260246000fd5b500490565b600060208284031215611a5257600080fd5b5051919050565b808201808211156104b2576104b26119f1565b600060208284031215611a7e57600080fd5b8151801515811461188b57600080fd5b818103818111156104b2576104b26119f1565b600181811c90821680611ab557607f821691505b602082108103611ad557634e487b7160e01b600052602260045260246000fd5b50919050565b6020808252600f908201526e151c985b9cd9995c8819985a5b1959608a1b604082015260600190565b634e487b7160e01b600052603260045260246000fd5b634e487b7160e01b600052604160045260246000fd5b601f821115611b7a57600081815260208120601f850160051c81016020861015611b575750805b601f850160051c820191505b81811015611b7657828155600101611b63565b5050505b505050565b815167ffffffffffffffff811115611b9957611b99611b1a565b611bad81611ba78454611aa1565b84611b30565b602080601f831160018114611be25760008415611bca5750858301515b600019600386901b1c1916600185901b178555611b76565b600085815260208120601f198616915b82811015611c1157888601518255948401946001909101908401611bf2565b5085821015611c2f5787850151600019600388901b60f8161c191681555b5050505050600190811b0190555056fea264697066735822122052bc3cf93a74187bbdfc67145a28110cb6a4c0045728b05fb431c7bceba2f5b264736f6c63430008130033",
  "linkReferences": {},
  "deployedLinkReferences": {}
}