{
  "_format": "hh-sol-artifact-1",
  "contractName": "AuraToken",
  "sourceName": "contracts/AuraToken.sol",
  "abi": [
    {
      "inputs": [],
      "stateMutability": "nonpayable",
      "type": "constructor"
    },
    {
      "inputs": [],
      "name": "InvalidShortString",
      "type": "error"
    },
    {
      "inputs": [
        {
          "internalType": "string",
          "name": "str",
          "type": "string"
        }
      ],
      "name": "StringTooLong",
      "type": "error"
    },
    {
      "anonymous": false,
      "inputs": [
        {
          "indexed": true,
          "internalType": "address",
          "name": "owner",
          "type": "address"
        },
        {
          "indexed": true,
          "internalType": "address",
          "name": "spender",
          "type": "address"
        },
        {
          "indexed": false,
          "internalType": "uint256",
          "name": "value",
          "type": "uint256"
        }
      ],
      "name": "Approval",
      "type": "event"
    },
    {
      "anonymous": false,
      "inputs": [],
      "name": "EIP712DomainChanged",
      "type": "event"
    },
    {
      "anonymous": false,
      "inputs": [
        {
          "indexed": true,
          "internalType": "address",
          "name": "minter",
          "type": "address"
        }
      ],
      "name": "MinterAdded",
      "type": "event"
    },
    {
      "anonymous": false,
      "inputs": [
        {
          "indexed": true,
          "internalType": "address",
          "name": "minter",
          "type": "address"
        }
      ],
      "name": "MinterRemoved",
      "type": "event"
    },
    {
      "anonymous": false,
      "inputs": [
        {
          "indexed": true,
          "internalType": "address",
          "name": "previousOwner",
          "type": "address"
        },
        {
          "indexed": true,
          "internalType": "address",
          "name": "newOwner",
          "type": "address"
        }
      ],
      "name": "OwnershipTransferred",
      "type": "event"
    },
    {
      "anonymous": false,
      "inputs": [
        {
          "indexed": true,
          "internalType": "address",
          "name": "from",
          "type": "address"
        },
        {
          "indexed": false,
          "internalType": "uint256",
          "name": "amount",
          "type": "uint256"
        }
      ],
      "name": "TokensBurned",
      "type": "event"
    },
    {
      "anonymous": false,
      "inputs": [
        {
          "indexed": true,
          "internalType": "address",
          "name": "to",
          "type": "address"
        },
        {
          "indexed": false,
          "internalType": "uint256",
          "name": "amount",
          "type": "uint256"
        },
        {
          "indexed": false,
          "internalType": "string",
          "name": "reason",
          "type": "string"
        }
      ],
      "name": "TokensMinted",
      "type": "event"
    },
    {
      "anonymous": false,
      "inputs": [
        {
          "indexed": true,
          "internalType": "address",
          "name": "from",
          "type": "address"
        },
        {
          "indexed": true,
          "internalType": "address",
          "name": "to",
          "type": "address"
        },
        {
          "indexed": false,
          "internalType": "uint256",
          "name": "value",
          "type": "uint256"
        }
      ],
      "name": "Transfer",
      "type": "event"
    },
    {
      "inputs": [],
      "name": "DOMAIN_SEPARATOR",
      "outputs": [
        {
          "internalType": "bytes32",
          "name": "",
          "type": "bytes32"
        }
      ],
      "stateMutability": "view",
      "type": "function"
    },
    {
      "inputs": [],
      "name": "MAX_SUPPLY",
      "outputs": [
        {
          "internalType": "uint256",
          "name": "",
          "type": "uint256"
        }
      ],
      "stateMutability": "view",
      "type": "function"
    },
    {
      "inputs": [
        {
          "internalType": "address",
          "name": "_minter",
          "type": "address"
        }
      ],
      "name": "addMinter",
      "outputs": [],
      "stateMutability": "nonpayable",
      "type": "function"
    },
    {
      "inputs": [
        {
          "internalType": "address",
          "name": "owner",
          "type": "address"
        },
        {
          "internalType": "address",
          "name": "spender",
          "type": "address"
        }
      ],
      "name": "allowance",
      "outputs": [
        {
          "internalType": "uint256",
          "name": "",
          "type": "uint256"
        }
      ],
      "stateMutability": "view",
      "type": "function"
    },
    {
      "inputs": [
        {
          "internalType": "address",
          "name": "spender",
          "type": "address"
        },
        {
          "internalType": "uint256",
          "name": "amount",
          "type": "uint256"
        }
      ],
      "name": "approve",
      "outputs": [
        {
          "internalType": "bool",
          "name": "",
          "type": "bool"
        }
      ],
      "stateMutability": "nonpayable",
      "type": "function"
    },
    {
      "inputs": [
        {
          "internalType": "address",
          "name": "account",
          "type": "address"
        }
      ],
      "name": "balanceOf",
      "outputs": [
        {
          "internalType": "uint256",
          "name": "",
          "type": "uint256"
        }
      ],
      "stateMutability": "view",
      "type": "function"
    },
    {
      "inputs": [
        {
          "internalType": "uint256",
          "name": "amount",
          "type": "uint256"
        }
      ],
      "name": "burn",
      "outputs": [],
      "stateMutability": "nonpayable",
      "type": "function"
    },
    {
      "inputs": [
        {
          "internalType": "address",
          "name": "account",
          "type": "address"
        },
        {
          "internalType": "uint256",
          "name": "amount",
          "type": "uint256"
        }
      ],
      "name": "burnFrom",
      "outputs": [],
      "stateMutability": "nonpayable",
      "type": "function"
    },
    {
      "inputs": [],
      "name": "decimals",
      "outputs": [
        {
          "internalType": "uint8",
          "name": "",
          "type": "uint8"
        }
      ],
      "stateMutability": "view",
      "type": "function"
    },
    {
      "inputs": [
        {
          "internalType": "address",
          "name": "spender",
          "type": "address"
        },
        {
          "internalType": "uint256",
          "name": "subtractedValue",
          "type": "uint256"
        }
      ],
      "name": "decreaseAllowance",
      "outputs": [
        {
          "internalType": "bool",
          "name": "",
          "type": "bool"
        }
      ],
      "stateMutability": "nonpayable",
      "type": "function"
    },
    {
      "inputs": [],
      "name": "eip712Domain",
      "outputs": [
        {
          "internalType": "bytes1",
          "name": "fields",
          "type": "bytes1"
        },
        {
          "internalType": "string",
          "name": "name",
          "type": "string"
        },
        {
          "internalType": "string",
          "name": "version",
          "type": "string"
        },
        {
          "internalType": "uint256",
          "name": "chainId",
          "type": "uint256"
        },
        {
          "internalType": "address",
          "name": "verifyingContract",
          "type": "address"
        },
        {
          "internalType": "bytes32",
          "name": "salt",
          "type": "bytes32"
        },
        {
          "internalType": "uint256[]",
          "name": "extensions",
          "type": "uint256[]"
        }
      ],
      "stateMutability": "view",
      "type": "function"
    },
    {
      "inputs": [
        {
          "internalType": "address",
          "name": "spender",
          "type": "address"
        },
        {
          "internalType": "uint256",
          "name": "addedValue",
          "type": "uint256"
        }
      ],
      "name": "increaseAllowance",
      "outputs": [
        {
          "internalType": "bool",
          "name": "",
          "type": "bool"
        }
      ],
      "stateMutability": "nonpayable",
      "type": "function"
    },
    {
      "inputs": [
        {
          "internalType": "address",
          "name": "to",
          "type": "address"
        },
        {
          "internalType": "uint256",
          "name": "amount",
          "type": "uint256"
        },
        {
          "internalType": "string",
          "name": "reason",
          "type": "string"
        }
      ],
      "name": "mint",
      "outputs": [],
      "stateMutability": "nonpayable",
      "type": "function"
    },
    {
      "inputs": [
        {
          "internalType": "address",
          "name": "",
          "type": "address"
        }
      ],
      "name": "minters",
      "outputs": [
        {
          "internalType": "bool",
          "name": "",
          "type": "bool"
        }
      ],
      "stateMutability": "view",
      "type": "function"
    },
    {
      "inputs": [],
      "name": "name",
      "outputs": [
        {
          "internalType": "string",
          "name": "",
          "type": "string"
        }
      ],
      "stateMutability": "view",
      "type": "function"
    },
    {
      "inputs": [
        {
          "internalType": "address",
          "name": "owner",
          "type": "address"
        }
      ],
      "name": "nonces",
      "outputs": [
        {
          "internalType": "uint256",
          "name": "",
          "type": "uint256"
        }
      ],
      "stateMutability": "view",
      "type": "function"
    },
    {
      "inputs": [],
      "name": "owner",
      "outputs": [
        {
          "internalType": "address",
          "name": "",
          "type": "address"
        }
      ],
      "stateMutability": "view",
      "type": "function"
    },
    {
      "inputs": [
        {
          "internalType": "address",
          "name": "owner",
          "type": "address"
        },
        {
          "internalType": "address",
          "name": "spender",
          "type": "address"
        },
        {
          "internalType": "uint256",
          "name": "value",
          "type": "uint256"
        },
        {
          "internalType": "uint256",
          "name": "deadline",
          "type": "uint256"
        },
        {
          "internalType": "uint8",
          "name": "v",
          "type": "uint8"
        },
        {
          "internalType": "bytes32",
          "name": "r",
          "type": "bytes32"
        },
        {
          "internalType": "bytes32",
          "name": "s",
          "type": "bytes32"
        }
      ],
      "name": "permit",
      "outputs": [],
      "stateMutability": "nonpayable",
      "type": "function"
    },
    {
      "inputs": [
        {
          "internalType": "address",
          "name": "_minter",
          "type": "address"
        }
      ],
      "name": "removeMinter",
      "outputs": [],
      "stateMutability": "nonpayable",
      "type": "function"
    },
    {
      "inputs": [],
      "name": "renounceOwnership",
      "outputs": [],
      "stateMutability": "nonpayable",
      "type": "function"
    },
    {
      "inputs": [],
      "name": "symbol",
      "outputs": [
        {
          "internalType": "string",
          "name": "",
          "type": "string"
        }
      ],
      "stateMutability": "view",
      "type": "function"
    },
    {
      "inputs": [],
      "name": "totalSupply",
      "outputs": [
        {
          "internalType": "uint256",
          "name": "",
          "type": "uint256"
        }
      ],
      "stateMutability": "view",
      "type": "function"
    },
    {
      "inputs": [
        {
          "internalType": "address",
          "name": "to",
          "type": "address"
        },
        {
          "internalType": "uint256",
          "name": "amount",
          "type": "uint256"
        }
      ],
      "name": "transfer",
      "outputs": [
        {
          "internalType": "bool",
          "name": "",
          "type": "bool"
        }
      ],
      "stateMutability": "nonpayable",
      "type": "function"
    },
    {
      "inputs": [
        {
          "internalType": "address",
          "name": "from",
          "type": "address"
        },
        {
          "internalType": "address",
          "name": "to",
          "type": "address"
        },
        {
          "internalType": "uint256",
          "name": "amount",
          "type": "uint256"
        }
      ],
      "name": "transferFrom",
      "outputs": [
        {
          "internalType": "bool",
          "name": "",
          "type": "bool"
        }
      ],
      "stateMutability": "nonpayable",
      "type": "function"
    },
    {
      "inputs": [
        {
          "internalType": "address",
          "name": "newOwner",
          "type": "address"
        }
      ],
      "name": "transferOwnership",
      "outputs": [],
      "stateMutability": "nonpayable",
      "type": "function"
    }
  ],
  "bytecode": "0x6101606040523480156200001257600080fd5b506040518060400160405280600a81526020016920bab930902a37b5b2b760b11b81525080604051806040016040528060018152602001603160f81b8152506040518060400160405280600a81526020016920bab930902a37b5b2b760b11b815250604051806040016040528060048152602001634155524160e01b8152508160039081620000a29190620003f5565b506004620000b18282620003f5565b505050620000ce620000c8620001b360201b60201c565b620001b7565b620000db82600662000209565b61012052620000ec81600762000209565b61014052815160208084019190912060e052815190820120610100524660a0526200017a60e05161010051604080517f8b73c3c69bb8fe3d512ecc4cf759cc79239f7b179b0ffacaa9a75d522b39400f60208201529081019290925260608201524660808201523060a082015260009060c00160405160208183030381529060405280519060200120905090565b60805250503060c05250620001ad6200019b6005546001600160a01b031690565b6a084595161401484a00000062000242565b62000558565b3390565b600580546001600160a01b038381166001600160a01b0319831681179093556040519116919082907f8be0079c531659141344cd1fd0a4f28419497f9722a3daafe3b4186f6b6457e090600090a35050565b60006020835110156200022957620002218362000309565b90506200023c565b81620002368482620003f5565b5060ff90505b92915050565b6001600160a01b0382166200029e5760405162461bcd60e51b815260206004820152601f60248201527f45524332303a206d696e7420746f20746865207a65726f20616464726573730060448201526064015b60405180910390fd5b8060026000828254620002b29190620004c1565b90915550506001600160a01b038216600081815260208181526040808320805486019055518481527fddf252ad1be2c89b69c2b068fc378daa952ba7f163c4a11628f55a4df523b3ef910160405180910390a35050565b600080829050601f8151111562000337578260405163305a27a960e01b8152600401620002959190620004e3565b8051620003448262000533565b179392505050565b505050565b634e487b7160e01b600052604160045260246000fd5b600181811c908216806200037c57607f821691505b6020821081036200039d57634e487b7160e01b600052602260045260246000fd5b50919050565b601f8211156200034c57600081815260208120601f850160051c81016020861015620003cc5750805b601f850160051c820191505b81811015620003ed57828155600101620003d8565b505050505050565b81516001600160401b0381111562000411576200041162000351565b620004298162000422845462000367565b84620003a3565b602080601f831160018114620004615760008415620004485750858301515b600019600386901b1c1916600185901b178555620003ed565b600085815260208120601f198616915b82811015620004925788860151825594840194600190910190840162000471565b5085821015620004b15787850151600019600388901b60f8161c191681555b5050505050600190811b01905550565b808201808211156200023c57634e487b7160e01b600052601160045260246000fd5b600060208083528351808285015260005b818110156200051257858101830151858201604001528201620004f4565b506000604082860101526040601f19601f8301168501019250505092915050565b805160208083015191908110156200039d5760001960209190910360031b1b16919050565b60805160a05160c05160e05161010051610120516101405161197b620005b360003960006105ce015260006105a301526000610f3201526000610f0a01526000610e6501526000610e8f01526000610eb9015261197b6000f3fe608060405234801561001057600080fd5b50600436106101735760003560e01c806379cc6790116100de578063a457c2d711610097578063d505accf11610071578063d505accf14610323578063dd62ed3e14610336578063f2fde38b14610349578063f46eccc41461035c57600080fd5b8063a457c2d7146102ea578063a9059cbb146102fd578063d3fc98641461031057600080fd5b806379cc6790146102735780637ecebe001461028657806384b0196e146102995780638da5cb5b146102b457806395d89b41146102cf578063983b2d56146102d757600080fd5b806332cb6b0c1161013057806332cb6b0c146102025780633644e51514610214578063395093511461021c57806342966c681461022f57806370a0823114610242578063715018a61461026b57600080fd5b806306fdde0314610178578063095ea7b31461019657806318160ddd146101b957806323b872dd146101cb5780633092afd5146101de578063313ce567146101f3575b600080fd5b61018061037f565b60405161018d91906115cc565b60405180910390f35b6101a96101a4366004611602565b610411565b604051901515815260200161018d565b6002545b60405190815260200161018d565b6101a96101d936600461162c565b61042b565b6101f16101ec366004611668565b61044f565b005b6040516012815260200161018d565b6101bd6a52b7d2dcc80cd2e400000081565b6101bd6104a0565b6101a961022a366004611602565b6104af565b6101f161023d366004611683565b6104d1565b6101bd610250366004611668565b6001600160a01b031660009081526020819052604090205490565b6101f1610512565b6101f1610281366004611602565b610526565b6101bd610294366004611668565b610577565b6102a1610595565b60405161018d979695949392919061169c565b6005546040516001600160a01b03909116815260200161018d565b61018061061e565b6101f16102e5366004611668565b61062d565b6101a96102f8366004611602565b6106d5565b6101a961030b366004611602565b610750565b6101f161031e366004611748565b61075e565b6101f1610331366004611813565b6108b4565b6101bd610344366004611886565b610a18565b6101f1610357366004611668565b610a43565b6101a961036a366004611668565b600a6020526000908152604090205460ff1681565b60606003805461038e906118b9565b80601f01602080910402602001604051908101604052809291908181526020018280546103ba906118b9565b80156104075780601f106103dc57610100808354040283529160200191610407565b820191906000526020600020905b8154815290600101906020018083116103ea57829003601f168201915b5050505050905090565b60003361041f818585610abc565b60019150505b92915050565b600033610439858285610be0565b610444858585610c5a565b506001949350505050565b610457610dfe565b6001600160a01b0381166000818152600a6020526040808220805460ff19169055517fe94479a9f7e1952cc78f2d6baab678adc1b772d936c6583def489e524cb666929190a250565b60006104aa610e58565b905090565b60003361041f8185856104c28383610a18565b6104cc91906118ed565b610abc565b6104da81610f83565b60405181815233907ffd38818f5291bf0bb3a2a48aadc06ba8757865d1dabd804585338aab3009dcb69060200160405180910390a250565b61051a610dfe565b6105246000610f8d565b565b6105308282610fdf565b816001600160a01b03167ffd38818f5291bf0bb3a2a48aadc06ba8757865d1dabd804585338aab3009dcb68260405161056b91815260200190565b60405180910390a25050565b6001600160a01b038116600090815260086020526040812054610425565b6000606080828080836105c97f00000000000000000000000000000000000000000000000000000000000000006006610ff8565b6105f47f00000000000000000000000000000000000000000000000000000000000000006007610ff8565b60408051600080825260208201909252600f60f81b9b939a50919850469750309650945092509050565b60606004805461038e906118b9565b610635610dfe565b6001600160a01b0381166106895760405162461bcd60e51b8152602060048201526016602482015275496e76616c6964206d696e746572206164647265737360501b60448201526064015b60405180910390fd5b6001600160a01b0381166000818152600a6020526040808220805460ff19166001179055517f6ae172837ea30b801fbfcdd4108aa1d5bf8ff775444fd70256b44e6bf3dfc3f69190a250565b600033816106e38286610a18565b9050838110156107435760405162461bcd60e51b815260206004820152602560248201527f45524332303a2064656372656173656420616c6c6f77616e63652062656c6f77604482015264207a65726f60d81b6064820152608401610680565b6104448286868403610abc565b60003361041f818585610c5a565b336000908152600a602052604090205460ff166107b55760405162461bcd60e51b815260206004820152601560248201527413db9b1e481b5a5b9d195c9cc818d85b881b5a5b9d605a1b6044820152606401610680565b6a52b7d2dcc80cd2e4000000826107cb60025490565b6107d591906118ed565b11156108185760405162461bcd60e51b815260206004820152601260248201527145786365656473206d617820737570706c7960701b6044820152606401610680565b6001600160a01b0383166108625760405162461bcd60e51b8152602060048201526011602482015270125b9d985b1a59081c9958da5c1a595b9d607a1b6044820152606401610680565b61086c83836110a3565b826001600160a01b03167f9d89e36eadf856db0ad9ffb5a569e07f95634dddd9501141ecf04820484ad0dc83836040516108a792919061190e565b60405180910390a2505050565b834211156109045760405162461bcd60e51b815260206004820152601d60248201527f45524332305065726d69743a206578706972656420646561646c696e650000006044820152606401610680565b60007f6e71edae12b1b97f4d1f60370fef10105fa2faae0126114a169c64845d6126c98888886109338c611162565b6040805160208101969096526001600160a01b0394851690860152929091166060840152608083015260a082015260c0810186905260e001604051602081830303815290604052805190602001209050600061098e8261118a565b9050600061099e828787876111b7565b9050896001600160a01b0316816001600160a01b031614610a015760405162461bcd60e51b815260206004820152601e60248201527f45524332305065726d69743a20696e76616c6964207369676e617475726500006044820152606401610680565b610a0c8a8a8a610abc565b50505050505050505050565b6001600160a01b03918216600090815260016020908152604080832093909416825291909152205490565b610a4b610dfe565b6001600160a01b038116610ab05760405162461bcd60e51b815260206004820152602660248201527f4f776e61626c653a206e6577206f776e657220697320746865207a65726f206160448201526564647265737360d01b6064820152608401610680565b610ab981610f8d565b50565b6001600160a01b038316610b1e5760405162461bcd60e51b8152602060048201526024808201527f45524332303a20617070726f76652066726f6d20746865207a65726f206164646044820152637265737360e01b6064820152608401610680565b6001600160a01b038216610b7f5760405162461bcd60e51b815260206004820152602260248201527f45524332303a20617070726f766520746f20746865207a65726f206164647265604482015261737360f01b6064820152608401610680565b6001600160a01b0383811660008181526001602090815260408083209487168084529482529182902085905590518481527f8c5be1e5ebec7d5bd14f71427d1e84f3dd0314c0f7b2291e5b200ac8c7c3b925910160405180910390a3505050565b6000610bec8484610a18565b90506000198114610c545781811015610c475760405162461bcd60e51b815260206004820152601d60248201527f45524332303a20696e73756666696369656e7420616c6c6f77616e63650000006044820152606401610680565b610c548484848403610abc565b50505050565b6001600160a01b038316610cbe5760405162461bcd60e51b815260206004820152602560248201527f45524332303a207472616e736665722066726f6d20746865207a65726f206164604482015264647265737360d81b6064820152608401610680565b6001600160a01b038216610d205760405162461bcd60e51b815260206004820152602360248201527f45524332303a207472616e7366657220746f20746865207a65726f206164647260448201526265737360e81b6064820152608401610680565b6001600160a01b03831660009081526020819052604090205481811015610d985760405162461bcd60e51b815260206004820152602660248201527f45524332303a207472616e7366657220616d6f756e7420657863656564732062604482015265616c616e636560d01b6064820152608401610680565b6001600160a01b03848116600081815260208181526040808320878703905593871680835291849020805487019055925185815290927fddf252ad1be2c89b69c2b068fc378daa952ba7f163c4a11628f55a4df523b3ef910160405180910390a3610c54565b6005546001600160a01b031633146105245760405162461bcd60e51b815260206004820181905260248201527f4f776e61626c653a2063616c6c6572206973206e6f7420746865206f776e65726044820152606401610680565b6000306001600160a01b037f000000000000000000000000000000000000000000000000000000000000000016148015610eb157507f000000000000000000000000000000000000000000000000000000000000000046145b15610edb57507f000000000000000000000000000000000000000000000000000000000000000090565b6104aa604080517f8b73c3c69bb8fe3d512ecc4cf759cc79239f7b179b0ffacaa9a75d522b39400f60208201527f0000000000000000000000000000000000000000000000000000000000000000918101919091527f000000000000000000000000000000000000000000000000000000000000000060608201524660808201523060a082015260009060c00160405160208183030381529060405280519060200120905090565b610ab933826111df565b600580546001600160a01b038381166001600160a01b0319831681179093556040519116919082907f8be0079c531659141344cd1fd0a4f28419497f9722a3daafe3b4186f6b6457e090600090a35050565b610fea823383610be0565b610ff482826111df565b5050565b606060ff83146110125761100b83611311565b9050610425565b81805461101e906118b9565b80601f016020809104026020016040519081016040528092919081815260200182805461104a906118b9565b80156110975780601f1061106c57610100808354040283529160200191611097565b820191906000526020600020905b81548152906001019060200180831161107a57829003601f168201915b50505050509050610425565b6001600160a01b0382166110f95760405162461bcd60e51b815260206004820152601f60248201527f45524332303a206d696e7420746f20746865207a65726f2061646472657373006044820152606401610680565b806002600082825461110b91906118ed565b90915550506001600160a01b038216600081815260208181526040808320805486019055518481527fddf252ad1be2c89b69c2b068fc378daa952ba7f163c4a11628f55a4df523b3ef910160405180910390a35050565b6001600160a01b03811660009081526008602052604090208054600181018255905b50919050565b6000610425611197610e58565b8360405161190160f01b8152600281019290925260228201526042902090565b60008060006111c887878787611350565b915091506111d581611414565b5095945050505050565b6001600160a01b03821661123f5760405162461bcd60e51b815260206004820152602160248201527f45524332303a206275726e2066726f6d20746865207a65726f206164647265736044820152607360f81b6064820152608401610680565b6001600160a01b038216600090815260208190526040902054818110156112b35760405162461bcd60e51b815260206004820152602260248201527f45524332303a206275726e20616d6f756e7420657863656564732062616c616e604482015261636560f01b6064820152608401610680565b6001600160a01b0383166000818152602081815260408083208686039055600280548790039055518581529192917fddf252ad1be2c89b69c2b068fc378daa952ba7f163c4a11628f55a4df523b3ef910160405180910390a3505050565b6060600061131e8361155e565b604080516020808252818301909252919250600091906020820181803683375050509182525060208101929092525090565b6000807f7fffffffffffffffffffffffffffffff5d576e7357a4501ddfe92f46681b20a0831115611387575060009050600361140b565b6040805160008082526020820180845289905260ff881692820192909252606081018690526080810185905260019060a0016020604051602081039080840390855afa1580156113db573d6000803e3d6000fd5b5050604051601f1901519150506001600160a01b0381166114045760006001925092505061140b565b9150600090505b94509492505050565b60008160048111156114285761142861192f565b036114305750565b60018160048111156114445761144461192f565b036114915760405162461bcd60e51b815260206004820152601860248201527f45434453413a20696e76616c6964207369676e617475726500000000000000006044820152606401610680565b60028160048111156114a5576114a561192f565b036114f25760405162461bcd60e51b815260206004820152601f60248201527f45434453413a20696e76616c6964207369676e6174757265206c656e677468006044820152606401610680565b60038160048111156115065761150661192f565b03610ab95760405162461bcd60e51b815260206004820152602260248201527f45434453413a20696e76616c6964207369676e6174757265202773272076616c604482015261756560f01b6064820152608401610680565b600060ff8216601f81111561042557604051632cd44ac360e21b815260040160405180910390fd5b6000815180845260005b818110156115ac57602081850181015186830182015201611590565b506000602082860101526020601f19601f83011685010191505092915050565b6020815260006115df6020830184611586565b9392505050565b80356001600160a01b03811681146115fd57600080fd5b919050565b6000806040838503121561161557600080fd5b61161e836115e6565b946020939093013593505050565b60008060006060848603121561164157600080fd5b61164a846115e6565b9250611658602085016115e6565b9150604084013590509250925092565b60006020828403121561167a57600080fd5b6115df826115e6565b60006020828403121561169557600080fd5b5035919050565b60ff60f81b881681526000602060e0818401526116bc60e084018a611586565b83810360408501526116ce818a611586565b606085018990526001600160a01b038816608086015260a0850187905284810360c0860152855180825283870192509083019060005b8181101561172057835183529284019291840191600101611704565b50909c9b505050505050505050505050565b634e487b7160e01b600052604160045260246000fd5b60008060006060848603121561175d57600080fd5b611766846115e6565b925060208401359150604084013567ffffffffffffffff8082111561178a57600080fd5b818601915086601f83011261179e57600080fd5b8135818111156117b0576117b0611732565b604051601f8201601f19908116603f011681019083821181831017156117d8576117d8611732565b816040528281528960208487010111156117f157600080fd5b8260208601602083013760006020848301015280955050505050509250925092565b600080600080600080600060e0888a03121561182e57600080fd5b611837886115e6565b9650611845602089016115e6565b95506040880135945060608801359350608088013560ff8116811461186957600080fd5b9699959850939692959460a0840135945060c09093013592915050565b6000806040838503121561189957600080fd5b6118a2836115e6565b91506118b0602084016115e6565b90509250929050565b600181811c908216806118cd57607f821691505b60208210810361118457634e487b7160e01b600052602260045260246000fd5b8082018082111561042557634e487b7160e01b600052601160045260246000fd5b8281526040602082015260006119276040830184611586565b949350505050565b634e487b7160e01b600052602160045260246000fdfea26469706673582212201b3253b7cf4b216d61bf475359a1cc842ba994ace7aa3d739d2f1d7f9dc3c5ea64736f6c63430008130033",
  "linkReferences": {},
  "deployedLinkReferences": {}
}