{
  "_format": "hh-sol-artifact-1",
  "contractName": "AgentMarketplace",
  "sourceName": "contracts/AgentMarketplace.sol",
  "abi": [
    {
      "inputs": [
        {
          "internalType": "address",
          "name": "_auraToken",
          "type": "address"
        }
      ],
      "stateMutability": "nonpayable",
      "type": "constructor"
    },
    {
      "anonymous": false,
      "inputs": [
        {
          "indexed": true,
          "internalType": "address",
          "name": "creator",
          "type": "address"
        }
      ],
      "name": "CreatorDemoted",
      "type": "event"
    },
    {
      "anonymous": false,
      "inputs": [
        {
          "indexed": true,
          "internalType": "address",
          "name": "creator",
          "type": "address"
        }
      ],
      "name": "CreatorPromoted",
      "type": "event"
    },
    {
      "anonymous": false,
      "inputs": [
        {
          "indexed": true,
          "internalType": "uint256",
          "name": "insightId",
          "type": "uint256"
        },
        {
          "indexed": true,
          "internalType": "address",
          "name": "creator",
          "type": "address"
        },
        {
          "indexed": false,
          "internalType": "string",
          "name": "title",
          "type": "string"
        },
        {
          "indexed": false,
          "internalType": "string",
          "name": "category",
          "type": "string"
        },
        {
          "indexed": false,
          "internalType": "uint256",
          "name": "price",
          "type": "uint256"
        }
      ],
      "name": "InsightCreated",
      "type": "event"
    },
    {
      "anonymous": false,
      "inputs": [
        {
          "indexed": true,
          "internalType": "uint256",
          "name": "insightId",
          "type": "uint256"
        }
      ],
      "name": "InsightDeactivated",
      "type": "event"
    },
    {
      "anonymous": false,
      "inputs": [
        {
          "indexed": true,
          "internalType": "uint256",
          "name": "insightId",
          "type": "uint256"
        },
        {
          "indexed": true,
          "internalType": "address",
          "name": "buyer",
          "type": "address"
        },
        {
          "indexed": true,
          "internalType": "address",
          "name": "creator",
          "type": "address"
        },
        {
          "indexed": false,
          "internalType": "uint256",
          "name": "price",
          "type": "uint256"
        }
      ],
      "name": "InsightPurchased",
      "type": "event"
    },
    {
      "anonymous": false,
      "inputs": [
        {
          "indexed": true,
          "internalType": "uint256",
          "name": "insightId",
          "type": "uint256"
        },
        {
          "indexed": true,
          "internalType": "address",
          "name": "rater",
          "type": "address"
        },
        {
          "indexed": false,
          "internalType": "uint256",
          "name": "rating",
          "type": "uint256"
        }
      ],
      "name": "InsightRated",
      "type": "event"
    },
    {
      "anonymous": false,
      "inputs": [
        {
          "indexed": true,
          "internalType": "uint256",
          "name": "insightId",
          "type": "uint256"
        }
      ],
      "name": "InsightReactivated",
      "type": "event"
    },
    {
      "anonymous": false,
      "inputs": [
        {
          "indexed": true,
          "internalType": "address",
          "name": "previousOwner",
          "type": "address"
        },
        {
          "indexed": true,
          "internalType": "address",
          "name": "newOwner",
          "type": "address"
        }
      ],
      "name": "OwnershipTransferred",
      "type": "event"
    },
    {
      "anonymous": false,
      "inputs": [
        {
          "indexed": false,
          "internalType": "address",
          "name": "account",
          "type": "address"
        }
      ],
      "name": "Paused",
      "type": "event"
    },
    {
      "anonymous": false,
      "inputs": [
        {
          "indexed": false,
          "internalType": "uint256",
          "name": "amount",
          "type": "uint256"
        }
      ],
      "name": "PlatformFeeWithdrawn",
      "type": "event"
    },
    {
      "anonymous": false,
      "inputs": [
        {
          "indexed": false,
          "internalType": "address",
          "name": "account",
          "type": "address"
        }
      ],
      "name": "Unpaused",
      "type": "event"
    },
    {
      "inputs": [],
      "name": "auraToken",
      "outputs": [
        {
          "internalType": "contract IAuraToken",
          "name": "",
          "type": "address"
        }
      ],
      "stateMutability": "view",
      "type": "function"
    },
    {
      "inputs": [
        {
          "internalType": "string",
          "name": "",
          "type": "string"
        }
      ],
      "name": "categoryInsightCount",
      "outputs": [
        {
          "internalType": "uint256",
          "name": "",
          "type": "uint256"
        }
      ],
      "stateMutability": "view",
      "type": "function"
    },
    {
      "inputs": [
        {
          "internalType": "string",
          "name": "",
          "type": "string"
        }
      ],
      "name": "categoryTotalVolume",
      "outputs": [
        {
          "internalType": "uint256",
          "name": "",
          "type": "uint256"
        }
      ],
      "stateMutability": "view",
      "type": "function"
    },
    {
      "inputs": [
        {
          "internalType": "string",
          "name": "title",
          "type": "string"
        },
        {
          "internalType": "string",
          "name": "description",
          "type": "string"
        },
        {
          "internalType": "string",
          "name": "category",
          "type": "string"
        },
        {
          "internalType": "uint256",
          "name": "price",
          "type": "uint256"
        }
      ],
      "name": "createInsight",
      "outputs": [],
      "stateMutability": "nonpayable",
      "type": "function"
    },
    {
      "inputs": [
        {
          "internalType": "uint256",
          "name": "insightId",
          "type": "uint256"
        }
      ],
      "name": "deactivateInsight",
      "outputs": [],
      "stateMutability": "nonpayable",
      "type": "function"
    },
    {
      "inputs": [
        {
          "internalType": "uint256",
          "name": "insightId",
          "type": "uint256"
        }
      ],
      "name": "getInsight",
      "outputs": [
        {
          "components": [
            {
              "internalType": "uint256",
              "name": "insightId",
              "type": "uint256"
            },
            {
              "internalType": "address",
              "name": "creator",
              "type": "address"
            },
            {
              "internalType": "string",
              "name": "title",
              "type": "string"
            },
            {
              "internalType": "string",
              "name": "description",
              "type": "string"
            },
            {
              "internalType": "string",
              "name": "category",
              "type": "string"
            },
            {
              "internalType": "uint256",
              "name": "price",
              "type": "uint256"
            },
            {
              "internalType": "uint256",
              "name": "accessCount",
              "type": "uint256"
            },
            {
              "internalType": "uint256",
              "name": "avgRating",
              "type": "uint256"
            },
            {
              "internalType": "uint256",
              "name": "createdAt",
              "type": "uint256"
            },
            {
              "internalType": "bool",
              "name": "isActive",
              "type": "bool"
            }
          ],
          "internalType": "struct AgentMarketplace.Insight",
          "name": "",
          "type": "tuple"
        }
      ],
      "stateMutability": "view",
      "type": "function"
    },
    {
      "inputs": [
        {
          "internalType": "uint256",
          "name": "insightId",
          "type": "uint256"
        }
      ],
      "name": "getInsightPurchases",
      "outputs": [
        {
          "components": [
            {
              "internalType": "uint256",
              "name": "insightId",
              "type": "uint256"
            },
            {
              "internalType": "address",
              "name": "buyer",
              "type": "address"
            },
            {
              "internalType": "uint256",
              "name": "price",
              "type": "uint256"
            },
            {
              "internalType": "uint256",
              "name": "timestamp",
              "type": "uint256"
            }
          ],
          "internalType": "struct AgentMarketplace.Purchase[]",
          "name": "",
          "type": "tuple[]"
        }
      ],
      "stateMutability": "view",
      "type": "function"
    },
    {
      "inputs": [
        {
          "internalType": "uint256",
          "name": "insightId",
          "type": "uint256"
        }
      ],
      "name": "getInsightRatings",
      "outputs": [
        {
          "internalType": "uint256[]",
          "name": "",
          "type": "uint256[]"
        }
      ],
      "stateMutability": "view",
      "type": "function"
    },
    {
      "inputs": [
        {
          "internalType": "string",
          "name": "category",
          "type": "string"
        }
      ],
      "name": "getInsightsByCategory",
      "outputs": [
        {
          "internalType": "uint256[]",
          "name": "",
          "type": "uint256[]"
        }
      ],
      "stateMutability": "view",
      "type": "function"
    },
    {
      "inputs": [],
      "name": "getPlatformFeePercent",
      "outputs": [
        {
          "internalType": "uint256",
          "name": "",
          "type": "uint256"
        }
      ],
      "stateMutability": "view",
      "type": "function"
    },
    {
      "inputs": [],
      "name": "getTotalInsights",
      "outputs": [
        {
          "internalType": "uint256",
          "name": "",
          "type": "uint256"
        }
      ],
      "stateMutability": "view",
      "type": "function"
    },
    {
      "inputs": [
        {
          "internalType": "address",
          "name": "user",
          "type": "address"
        }
      ],
      "name": "getUserReputation",
      "outputs": [
        {
          "components": [
            {
              "internalType": "address",
              "name": "user",
              "type": "address"
            },
            {
              "internalType": "uint256",
              "name": "insightsCreated",
              "type": "uint256"
            },
            {
              "internalType": "uint256",
              "name": "insightsPurchased",
              "type": "uint256"
            },
            {
              "internalType": "uint256",
              "name": "totalEarned",
              "type": "uint256"
            },
            {
              "internalType": "uint256",
              "name": "totalSpent",
              "type": "uint256"
            },
            {
              "internalType": "uint256",
              "name": "avgCreatorRating",
              "type": "uint256"
            },
            {
              "internalType": "bool",
              "name": "isTopCreator",
              "type": "bool"
            }
          ],
          "internalType": "struct AgentMarketplace.UserReputation",
          "name": "",
          "type": "tuple"
        }
      ],
      "stateMutability": "view",
      "type": "function"
    },
    {
      "inputs": [
        {
          "internalType": "uint256",
          "name": "",
          "type": "uint256"
        },
        {
          "internalType": "uint256",
          "name": "",
          "type": "uint256"
        }
      ],
      "name": "insightPurchases",
      "outputs": [
        {
          "internalType": "uint256",
          "name": "insightId",
          "type": "uint256"
        },
        {
          "internalType": "address",
          "name": "buyer",
          "type": "address"
        },
        {
          "internalType": "uint256",
          "name": "price",
          "type": "uint256"
        },
        {
          "internalType": "uint256",
          "name": "timestamp",
          "type": "uint256"
        }
      ],
      "stateMutability": "view",
      "type": "function"
    },
    {
      "inputs": [
        {
          "internalType": "uint256",
          "name": "",
          "type": "uint256"
        },
        {
          "internalType": "uint256",
          "name": "",
          "type": "uint256"
        }
      ],
      "name": "insightRatings",
      "outputs": [
        {
          "internalType": "uint256",
          "name": "",
          "type": "uint256"
        }
      ],
      "stateMutability": "view",
      "type": "function"
    },
    {
      "inputs": [
        {
          "internalType": "uint256",
          "name": "",
          "type": "uint256"
        }
      ],
      "name": "insights",
      "outputs": [
        {
          "internalType": "uint256",
          "name": "insightId",
          "type": "uint256"
        },
        {
          "internalType": "address",
          "name": "creator",
          "type": "address"
        },
        {
          "internalType": "string",
          "name": "title",
          "type": "string"
        },
        {
          "internalType": "string",
          "name": "description",
          "type": "string"
        },
        {
          "internalType": "string",
          "name": "category",
          "type": "string"
        },
        {
          "internalType": "uint256",
          "name": "price",
          "type": "uint256"
        },
        {
          "internalType": "uint256",
          "name": "accessCount",
          "type": "uint256"
        },
        {
          "internalType": "uint256",
          "name": "avgRating",
          "type": "uint256"
        },
        {
          "internalType": "uint256",
          "name": "createdAt",
          "type": "uint256"
        },
        {
          "internalType": "bool",
          "name": "isActive",
          "type": "bool"
        }
      ],
      "stateMutability": "view",
      "type": "function"
    },
    {
      "inputs": [],
      "name": "nextInsightId",
      "outputs": [
        {
          "internalType": "uint256",
          "name": "",
          "type": "uint256"
        }
      ],
      "stateMutability": "view",
      "type": "function"
    },
    {
      "inputs": [],
      "name": "owner",
      "outputs": [
        {
          "internalType": "address",
          "name": "",
          "type": "address"
        }
      ],
      "stateMutability": "view",
      "type": "function"
    },
    {
      "inputs": [],
      "name": "pause",
      "outputs": [],
      "stateMutability": "nonpayable",
      "type": "function"
    },
    {
      "inputs": [],
      "name": "paused",
      "outputs": [
        {
          "internalType": "bool",
          "name": "",
          "type": "bool"
        }
      ],
      "stateMutability": "view",
      "type": "function"
    },
    {
      "inputs": [],
      "name": "platformFeePercent",
      "outputs": [
        {
          "internalType": "uint256",
          "name": "",
          "type": "uint256"
        }
      ],
      "stateMutability": "view",
      "type": "function"
    },
    {
      "inputs": [
        {
          "internalType": "uint256",
          "name": "",
          "type": "uint256"
        }
      ],
      "name": "purchaseHistory",
      "outputs": [
        {
          "internalType": "uint256",
          "name": "insightId",
          "type": "uint256"
        },
        {
          "internalType": "address",
          "name": "buyer",
          "type": "address"
        },
        {
          "internalType": "uint256",
          "name": "price",
          "type": "uint256"
        },
        {
          "internalType": "uint256",
          "name": "timestamp",
          "type": "uint256"
        }
      ],
      "stateMutability": "view",
      "type": "function"
    },
    {
      "inputs": [
        {
          "internalType": "uint256",
          "name": "insightId",
          "type": "uint256"
        }
      ],
      "name": "purchaseInsight",
      "outputs": [],
      "stateMutability": "nonpayable",
      "type": "function"
    },
    {
      "inputs": [
        {
          "internalType": "uint256",
          "name": "insightId",
          "type": "uint256"
        },
        {
          "internalType": "uint256",
          "name": "rating",
          "type": "uint256"
        }
      ],
      "name": "rateInsight",
      "outputs": [],
      "stateMutability": "nonpayable",
      "type": "function"
    },
    {
      "inputs": [
        {
          "internalType": "uint256",
          "name": "insightId",
          "type": "uint256"
        }
      ],
      "name": "reactivateInsight",
      "outputs": [],
      "stateMutability": "nonpayable",
      "type": "function"
    },
    {
      "inputs": [],
      "name": "renounceOwnership",
      "outputs": [],
      "stateMutability": "nonpayable",
      "type": "function"
    },
    {
      "inputs": [],
      "name": "totalPlatformFees",
      "outputs": [
        {
          "internalType": "uint256",
          "name": "",
          "type": "uint256"
        }
      ],
      "stateMutability": "view",
      "type": "function"
    },
    {
      "inputs": [
        {
          "internalType": "address",
          "name": "newOwner",
          "type": "address"
        }
      ],
      "name": "transferOwnership",
      "outputs": [],
      "stateMutability": "nonpayable",
      "type": "function"
    },
    {
      "inputs": [],
      "name": "unpause",
      "outputs": [],
      "stateMutability": "nonpayable",
      "type": "function"
    },
    {
      "inputs": [
        {
          "internalType": "uint256",
          "name": "insightId",
          "type": "uint256"
        },
        {
          "internalType": "uint256",
          "name": "newPrice",
          "type": "uint256"
        }
      ],
      "name": "updateInsightPrice",
      "outputs": [],
      "stateMutability": "nonpayable",
      "type": "function"
    },
    {
      "inputs": [
        {
          "internalType": "uint256",
          "name": "newPercent",
          "type": "uint256"
        }
      ],
      "name": "updatePlatformFeePercent",
      "outputs": [],
      "stateMutability": "nonpayable",
      "type": "function"
    },
    {
      "inputs": [
        {
          "internalType": "address",
          "name": "",
          "type": "address"
        }
      ],
      "name": "userReputation",
      "outputs": [
        {
          "internalType": "address",
          "name": "user",
          "type": "address"
        },
        {
          "internalType": "uint256",
          "name": "insightsCreated",
          "type": "uint256"
        },
        {
          "internalType": "uint256",
          "name": "insightsPurchased",
          "type": "uint256"
        },
        {
          "internalType": "uint256",
          "name": "totalEarned",
          "type": "uint256"
        },
        {
          "internalType": "uint256",
          "name": "totalSpent",
          "type": "uint256"
        },
        {
          "internalType": "uint256",
          "name": "avgCreatorRating",
          "type": "uint256"
        },
        {
          "internalType": "bool",
          "name": "isTopCreator",
          "type": "bool"
        }
      ],
      "stateMutability": "view",
      "type": "function"
    },
    {
      "inputs": [],
      "name": "withdrawPlatformFees",
      "outputs": [],
      "stateMutability": "nonpayable",
      "type": "function"
    }
  ],
  "bytecode": "0x60806040526001600755600a6009553480156200001b57600080fd5b5060405162002bad38038062002bad8339810160408190526200003e916200012e565b6200004933620000de565b600180556002805460ff191690556001600160a01b038116620000b25760405162461bcd60e51b815260206004820152601a60248201527f496e76616c6964204155524120746f6b656e2061646472657373000000000000604482015260640160405180910390fd5b600280546001600160a01b0390921661010002610100600160a81b031990921691909117905562000160565b600080546001600160a01b038381166001600160a01b0319831681178455604051919092169283917f8be0079c531659141344cd1fd0a4f28419497f9722a3daafe3b4186f6b6457e09190a35050565b6000602082840312156200014157600080fd5b81516001600160a01b03811681146200015957600080fd5b9392505050565b612a3d80620001706000396000f3fe608060405234801561001057600080fd5b50600436106101f05760003560e01c80639cc9ccb61161010f578063d3631fa5116100a2578063f2fde38b11610071578063f2fde38b14610537578063f9df87381461054a578063fe495f0214610575578063ff1a3c821461058857600080fd5b8063d3631fa51461046f578063dcf11da714610478578063e2a2eac61461048b578063e503bb051461049e57600080fd5b8063baccbfdb116100de578063baccbfdb146103d2578063c11c000714610441578063cc1eac3b14610454578063d0b7830b1461046757600080fd5b80639cc9ccb614610367578063a2c1bf681461037f578063a8a92f631461039f578063a94a5e23146103b257600080fd5b80636fa5d977116101875780638456cb59116101565780638456cb591461031e5780638c639a85146103265780638da5cb5b1461032f57806393c29c031461035457600080fd5b80636fa5d977146102c3578063712a095e146102ee578063715018a61461030e5780637a0c56e41461031657600080fd5b806328afbba9116101c357806328afbba91461028a5780633f4ba83a1461029d5780634c9c3f85146102a55780635c975abb146102ad57600080fd5b806303ec0acc146101f5578063122178c61461020a57806319c9d331146102265780632829fc531461024f575b600080fd5b6102086102033660046122e9565b61059b565b005b61021360075481565b6040519081526020015b60405180910390f35b6102396102343660046122e9565b61068f565b60405161021d9a99989796959493929190612352565b61026261025d3660046122e9565b610882565b604080519485526001600160a01b03909316602085015291830152606082015260800161021d565b6102626102983660046123d7565b6108c5565b610208610914565b600954610213565b60025460ff16604051901515815260200161021d565b6102136102d136600461249c565b8051602081830181018051600b8252928201919093012091525481565b6103016102fc3660046122e9565b610926565b60405161021d91906124d9565b610208610c10565b610213610c22565b610208610c38565b61021360095481565b6000546001600160a01b03165b6040516001600160a01b03909116815260200161021d565b6102086103623660046122e9565b610c48565b60025461033c9061010090046001600160a01b031681565b61039261038d36600461249c565b611226565b60405161021d91906125a0565b6102086103ad3660046122e9565b6113a1565b6103c56103c03660046122e9565b61148f565b60405161021d91906125e4565b6103e56103e0366004612651565b61152c565b60405161021d919081516001600160a01b031681526020808301519082015260408083015190820152606080830151908201526080808301519082015260a0828101519082015260c09182015115159181019190915260e00190565b61039261044f3660046122e9565b6115e9565b6102086104623660046123d7565b61164b565b61020861170c565b610213600a5481565b6102086104863660046123d7565b611863565b610208610499366004612681565b611b01565b6104f66104ac366004612651565b600460208190526000918252604090912080546001820154600283015460038401549484015460058501546006909501546001600160a01b03909416959294919390919060ff1687565b604080516001600160a01b0390981688526020880196909652948601939093526060850191909152608084015260a0830152151560c082015260e00161021d565b610208610545366004612651565b611e15565b61021361055836600461249c565b8051602081830181018051600c8252928201919093012091525481565b6102136105833660046123d7565b611e8b565b6102086105963660046122e9565b611ebc565b600081815260036020526040902060018101546001600160a01b0316331461060a5760405162461bcd60e51b815260206004820152601b60248201527f4f6e6c792063726561746f722063616e2064656163746976617465000000000060448201526064015b60405180910390fd5b600981015460ff166106545760405162461bcd60e51b8152602060048201526013602482015272105b1c9958591e4819195858dd1a5d985d1959606a1b6044820152606401610601565b60098101805460ff1916905560405182907f61501b990bb5c69e72a2ed5744bb202462b84f695404b385729de3827e74bd5e90600090a25050565b60036020526000908152604090208054600182015460028301805492936001600160a01b03909216926106c190612711565b80601f01602080910402602001604051908101604052809291908181526020018280546106ed90612711565b801561073a5780601f1061070f5761010080835404028352916020019161073a565b820191906000526020600020905b81548152906001019060200180831161071d57829003601f168201915b50505050509080600301805461074f90612711565b80601f016020809104026020016040519081016040528092919081815260200182805461077b90612711565b80156107c85780601f1061079d576101008083540402835291602001916107c8565b820191906000526020600020905b8154815290600101906020018083116107ab57829003601f168201915b5050505050908060040180546107dd90612711565b80601f016020809104026020016040519081016040528092919081815260200182805461080990612711565b80156108565780601f1061082b57610100808354040283529160200191610856565b820191906000526020600020905b81548152906001019060200180831161083957829003601f168201915b505050600584015460068501546007860154600887015460099097015495969295919450925060ff168a565b6008818154811061089257600080fd5b600091825260209091206004909102018054600182015460028301546003909301549193506001600160a01b0316919084565b600560205281600052604060002081815481106108e157600080fd5b600091825260209091206004909102018054600182015460028301546003909301549194506001600160a01b0316925084565b61091c611f12565b610924611f6c565b565b6109876040518061014001604052806000815260200160006001600160a01b03168152602001606081526020016060815260200160608152602001600081526020016000815260200160008152602001600081526020016000151581525090565b60008281526003602052604090206009015460ff166109e15760405162461bcd60e51b8152602060048201526016602482015275125b9cda59da1d08191bd95cc81b9bdd08195e1a5cdd60521b6044820152606401610601565b6000828152600360209081526040918290208251610140810184528154815260018201546001600160a01b0316928101929092526002810180549293919291840191610a2c90612711565b80601f0160208091040260200160405190810160405280929190818152602001828054610a5890612711565b8015610aa55780601f10610a7a57610100808354040283529160200191610aa5565b820191906000526020600020905b815481529060010190602001808311610a8857829003601f168201915b50505050508152602001600382018054610abe90612711565b80601f0160208091040260200160405190810160405280929190818152602001828054610aea90612711565b8015610b375780601f10610b0c57610100808354040283529160200191610b37565b820191906000526020600020905b815481529060010190602001808311610b1a57829003601f168201915b50505050508152602001600482018054610b5090612711565b80601f0160208091040260200160405190810160405280929190818152602001828054610b7c90612711565b8015610bc95780601f10610b9e57610100808354040283529160200191610bc9565b820191906000526020600020905b815481529060010190602001808311610bac57829003601f168201915b50505091835250506005820154602082015260068201546040820152600782015460608201526008820154608082015260099091015460ff16151560a09091015292915050565b610c18611f12565b6109246000611fbe565b60006001600754610c339190612761565b905090565b610c40611f12565b61092461200e565b610c5061204b565b610c586120a4565b6000818152600360205260409020600981015460ff16610cb25760405162461bcd60e51b8152602060048201526015602482015274496e7369676874206e6f7420617661696c61626c6560581b6044820152606401610601565b6001810154336001600160a01b0390911603610d105760405162461bcd60e51b815260206004820152601b60248201527f43616e6e6f74207075726368617365206f776e20696e736967687400000000006044820152606401610601565b60058101546002546040516370a0823160e01b8152336004820152829161010090046001600160a01b0316906370a0823190602401602060405180830381865afa158015610d62573d6000803e3d6000fd5b505050506040513d601f19601f82011682018060405250810190610d86919061277a565b1015610dd45760405162461bcd60e51b815260206004820152601960248201527f496e73756666696369656e7420415552412062616c616e6365000000000000006044820152606401610601565b6000606460095483610de69190612793565b610df091906127aa565b90506000610dfe8284612761565b60025460018601546040516323b872dd60e01b81523360048201526001600160a01b0391821660248201526044810184905292935061010090910416906323b872dd906064016020604051808303816000875af1158015610e63573d6000803e3d6000fd5b505050506040513d601f19601f82011682018060405250810190610e8791906127cc565b610ed35760405162461bcd60e51b815260206004820152601960248201527f5061796d656e7420746f2063726561746f72206661696c6564000000000000006044820152606401610601565b6002546040516323b872dd60e01b8152336004820152306024820152604481018490526101009091046001600160a01b0316906323b872dd906064016020604051808303816000875af1158015610f2e573d6000803e3d6000fd5b505050506040513d601f19601f82011682018060405250810190610f5291906127cc565b610f9e5760405162461bcd60e51b815260206004820152601c60248201527f506c6174666f726d20666565207472616e73666572206661696c6564000000006044820152606401610601565b600684018054906000610fb0836127ee565b919050555081600a6000828254610fc79190612807565b909155505060408051608081018252868152336020808301828152838501888152426060860190815260008c81526005855287812080546001808201835591835286832089516004928302909101908155865181840180546001600160a01b03199081166001600160a01b03938416179091558751600280850191909155875160039094019390935560088054958601815586528b517ff3f7a9fe364faab93b216da50a3214154f22a0a2b415b23a84c8169e8b636ee39585029586015597517ff3f7a9fe364faab93b216da50a3214154f22a0a2b415b23a84c8169e8b636ee48501805490991691161790965593517ff3f7a9fe364faab93b216da50a3214154f22a0a2b415b23a84c8169e8b636ee582015591517ff3f7a9fe364faab93b216da50a3214154f22a0a2b415b23a84c8169e8b636ee6909201919091559384529091529281209092018054919261111e836127ee565b90915550503360009081526004602081905260408220018054869290611145908490612807565b909155505060018501546001600160a01b031660009081526004602052604081206003018054849290611179908490612807565b9250508190555083600c86600401604051611194919061288d565b908152602001604051809103902060008282546111b19190612807565b909155505060018501546040518581526001600160a01b0390911690339088907f11cc044500d7463c04ea35857acc681abefd35a27173dea89dfd32949de7d1ee9060200160405180910390a46001850154611215906001600160a01b03166120ea565b505050505061122360018055565b50565b6060600060015b6007548110156112ad5760008181526003602052604090206009015460ff168015611288575083805190602001206003600083815260200190815260200160002060040160405161127e919061288d565b6040518091039020145b1561129b5781611297816127ee565b9250505b806112a5816127ee565b91505061122d565b5060008167ffffffffffffffff8111156112c9576112c96123f9565b6040519080825280602002602001820160405280156112f2578160200160208202803683370190505b509050600060015b6007548110156113975760008181526003602052604090206009015460ff168015611355575085805190602001206003600083815260200190815260200160002060040160405161134b919061288d565b6040518091039020145b1561138557808383611366816127ee565b94508151811061137857611378612899565b6020026020010181815250505b8061138f816127ee565b9150506112fa565b5090949350505050565b600081815260036020526040902060018101546001600160a01b0316331461140b5760405162461bcd60e51b815260206004820152601b60248201527f4f6e6c792063726561746f722063616e207265616374697661746500000000006044820152606401610601565b600981015460ff16156114515760405162461bcd60e51b815260206004820152600e60248201526d416c72656164792061637469766560901b6044820152606401610601565b60098101805460ff1916600117905560405182907f5199c1e65f0c9cbc547f90aa1a00e8c7b27ff93ba49b08b4aa789f0adf3c6dcd90600090a25050565b606060056000838152602001908152602001600020805480602002602001604051908101604052809291908181526020016000905b828210156115215760008481526020908190206040805160808101825260048602909201805483526001808201546001600160a01b03168486015260028201549284019290925260030154606083015290835290920191016114c4565b505050509050919050565b6115776040518060e0016040528060006001600160a01b0316815260200160008152602001600081526020016000815260200160008152602001600081526020016000151581525090565b506001600160a01b03908116600090815260046020818152604092839020835160e08101855281549095168552600181015491850191909152600281015492840192909252600382015460608401528101546080830152600581015460a08301526006015460ff16151560c082015290565b60008181526006602090815260409182902080548351818402810184019094528084526060939283018282801561163f57602002820191906000526020600020905b81548152602001906001019080831161162b575b50505050509050919050565b600082815260036020526040902060018101546001600160a01b031633146116b55760405162461bcd60e51b815260206004820152601d60248201527f4f6e6c792063726561746f722063616e207570646174652070726963650000006044820152606401610601565b600082116117055760405162461bcd60e51b815260206004820152601c60248201527f5072696365206d7573742062652067726561746572207468616e2030000000006044820152606401610601565b6005015550565b611714611f12565b61171c61204b565b6000600a54116117645760405162461bcd60e51b81526020600482015260136024820152724e6f206665657320746f20776974686472617760681b6044820152606401610601565b600a8054600090915560025460405163a9059cbb60e01b8152336004820152602481018390526101009091046001600160a01b03169063a9059cbb906044016020604051808303816000875af11580156117c2573d6000803e3d6000fd5b505050506040513d601f19601f820116820180604052508101906117e691906127cc565b6118265760405162461bcd60e51b815260206004820152601160248201527015da5d1a191c985dd85b0819985a5b1959607a1b6044820152606401610601565b6040518181527fa3f0fdc01545d578089318e8ad641e1a1a1ec38678f2733d4e67a676c2980f3e9060200160405180910390a15061092460018055565b60008281526003602052604090206009015460ff166118bd5760405162461bcd60e51b8152602060048201526016602482015275125b9cda59da1d08191bd95cc81b9bdd08195e1a5cdd60521b6044820152606401610601565b600181101580156118cf575060058111155b61191b5760405162461bcd60e51b815260206004820152601e60248201527f526174696e67206d757374206265206265747765656e203120616e64203500006044820152606401610601565b6000828152600560205260408120815b815481101561198d57336001600160a01b031682828154811061195057611950612899565b60009182526020909120600160049092020101546001600160a01b03160361197b576001925061198d565b80611985816127ee565b91505061192b565b50816119db5760405162461bcd60e51b815260206004820181905260248201527f4d75737420707572636861736520696e736967687420746f20726174652069746044820152606401610601565b60006119e8846064612793565b60008681526006602090815260408220805460018101825590835290822001829055909150805b600087815260066020526040902054811015611a6f576000878152600660205260409020805482908110611a4557611a45612899565b906000526020600020015482611a5b9190612807565b915080611a67816127ee565b915050611a0f565b50600086815260066020526040902054611a8990826127aa565b6000878152600360209081526040918290206007019290925551868152339188917f40684d3fac1b9081084a3789e86a3ca61e57b1cd90bf76e5e62764ba991c9973910160405180910390a3600086815260036020526040902060010154611af9906001600160a01b03166121f7565b505050505050565b611b0961204b565b611b116120a4565b6000845111611b5a5760405162461bcd60e51b81526020600482015260156024820152745469746c652063616e6e6f7420626520656d70747960581b6044820152606401610601565b6000835111611bab5760405162461bcd60e51b815260206004820152601b60248201527f4465736372697074696f6e2063616e6e6f7420626520656d70747900000000006044820152606401610601565b6000825111611bfc5760405162461bcd60e51b815260206004820152601860248201527f43617465676f72792063616e6e6f7420626520656d70747900000000000000006044820152606401610601565b60008111611c4c5760405162461bcd60e51b815260206004820152601c60248201527f5072696365206d7573742062652067726561746572207468616e2030000000006044820152606401610601565b6007805460009182611c5d836127ee565b9091555060408051610140810182528281523360208083019182528284018a8152606084018a90526080840189905260a08401889052600060c0850181905260e08501819052426101008601526001610120860181905287825260039093529490942083518155915190820180546001600160a01b0319166001600160a01b039092169190911790559151929350916002820190611cfb90826128f5565b5060608201516003820190611d1090826128f5565b5060808201516004820190611d2590826128f5565b5060a0820151600582015560c0820151600682015560e082015160078201556101008201516008820155610120909101516009909101805460ff1916911515919091179055336000908152600460205260408120600101805491611d88836127ee565b9190505550600b83604051611d9d91906129b5565b9081526040519081900360200190208054906000611dba836127ee565b9190505550336001600160a01b0316817fb166f25ee4483eb786b3a7b549c485d8cb2c36343beebf7b6c870ec50a59ab2d878686604051611dfd939291906129d1565b60405180910390a350611e0f60018055565b50505050565b611e1d611f12565b6001600160a01b038116611e825760405162461bcd60e51b815260206004820152602660248201527f4f776e61626c653a206e6577206f776e657220697320746865207a65726f206160448201526564647265737360d01b6064820152608401610601565b61122381611fbe565b60066020528160005260406000208181548110611ea757600080fd5b90600052602060002001600091509150505481565b611ec4611f12565b6032811115611f0d5760405162461bcd60e51b81526020600482015260156024820152744665652063616e6e6f74206578636565642035302560581b6044820152606401610601565b600955565b6000546001600160a01b031633146109245760405162461bcd60e51b815260206004820181905260248201527f4f776e61626c653a2063616c6c6572206973206e6f7420746865206f776e65726044820152606401610601565b611f746122a0565b6002805460ff191690557f5db9ee0a495bf2e6ff9c91a7834c1ba4fdd244a5e8aa4e537bd38aeae4b073aa335b6040516001600160a01b03909116815260200160405180910390a1565b600080546001600160a01b038381166001600160a01b0319831681178455604051919092169283917f8be0079c531659141344cd1fd0a4f28419497f9722a3daafe3b4186f6b6457e09190a35050565b6120166120a4565b6002805460ff191660011790557f62e78cea01bee320cd4e420270b5ea74000d11b0c9f74754ebdbfc544b05a258611fa13390565b60026001540361209d5760405162461bcd60e51b815260206004820152601f60248201527f5265656e7472616e637947756172643a207265656e7472616e742063616c6c006044820152606401610601565b6002600155565b60025460ff16156109245760405162461bcd60e51b815260206004820152601060248201526f14185d5cd8589b194e881c185d5cd95960821b6044820152606401610601565b6001600160a01b03811660009081526004602052604081206001810154909190600a11801590612127575068056bc75e2d63100000826003015410155b80156121395750610190826005015410155b905080801561214d5750600682015460ff16155b1561219a5760068201805460ff191660011790556040516001600160a01b038416907fce657fb23f5540732b2bbbb2b641d9f45828939f70d35eb8efe8b2ae64d97ebe90600090a2505050565b801580156121ac5750600682015460ff165b156121f25760068201805460ff191690556040516001600160a01b038416907f0e03a5ba3e302893b7a9fccc6c38b46b3c1970e4019215c7f2ca95e37298def190600090a25b505050565b60008060015b600754811015612269576000818152600360205260409020600101546001600160a01b03808616911603612257576000818152600360205260409020600701546122479084612807565b925081612253816127ee565b9250505b80612261816127ee565b9150506121fd565b5080156122975761227a81836127aa565b6001600160a01b0384166000908152600460205260409020600501555b6121f2836120ea565b60025460ff166109245760405162461bcd60e51b815260206004820152601460248201527314185d5cd8589b194e881b9bdd081c185d5cd95960621b6044820152606401610601565b6000602082840312156122fb57600080fd5b5035919050565b60005b8381101561231d578181015183820152602001612305565b50506000910152565b6000815180845261233e816020860160208601612302565b601f01601f19169290920160200192915050565b8a81526001600160a01b038a1660208201526101406040820181905260009061237d8382018c612326565b90508281036060840152612391818b612326565b905082810360808401526123a5818a612326565b60a0840198909852505060c081019490945260e084019290925261010083015215156101209091015295945050505050565b600080604083850312156123ea57600080fd5b50508035926020909101359150565b634e487b7160e01b600052604160045260246000fd5b600082601f83011261242057600080fd5b813567ffffffffffffffff8082111561243b5761243b6123f9565b604051601f8301601f19908116603f01168101908282118183101715612463576124636123f9565b8160405283815286602085880101111561247c57600080fd5b836020870160208301376000602085830101528094505050505092915050565b6000602082840312156124ae57600080fd5b813567ffffffffffffffff8111156124c557600080fd5b6124d18482850161240f565b949350505050565b60208152815160208201526000602083015161250060408401826001600160a01b03169052565b50604083015161014080606085015261251d610160850183612326565b91506060850151601f198086850301608087015261253b8483612326565b935060808701519150808685030160a0870152506125598382612326565b92505060a085015160c085015260c085015160e085015260e08501516101008181870152808701519150506101208181870152808701519150506113978286018215159052565b6020808252825182820181905260009190848201906040850190845b818110156125d8578351835292840192918401916001016125bc565b50909695505050505050565b602080825282518282018190526000919060409081850190868401855b8281101561264457815180518552868101516001600160a01b03168786015285810151868601526060908101519085015260809093019290850190600101612601565b5091979650505050505050565b60006020828403121561266357600080fd5b81356001600160a01b038116811461267a57600080fd5b9392505050565b6000806000806080858703121561269757600080fd5b843567ffffffffffffffff808211156126af57600080fd5b6126bb8883890161240f565b955060208701359150808211156126d157600080fd5b6126dd8883890161240f565b945060408701359150808211156126f357600080fd5b506127008782880161240f565b949793965093946060013593505050565b600181811c9082168061272557607f821691505b60208210810361274557634e487b7160e01b600052602260045260246000fd5b50919050565b634e487b7160e01b600052601160045260246000fd5b818103818111156127745761277461274b565b92915050565b60006020828403121561278c57600080fd5b5051919050565b80820281158282048414176127745761277461274b565b6000826127c757634e487b7160e01b600052601260045260246000fd5b500490565b6000602082840312156127de57600080fd5b8151801515811461267a57600080fd5b6000600182016128005761280061274b565b5060010190565b808201808211156127745761277461274b565b6000815461282781612711565b6001828116801561283f576001811461285457612883565b60ff1984168752821515830287019450612883565b8560005260208060002060005b8581101561287a5781548a820152908401908201612861565b50505082870194505b5050505092915050565b600061267a828461281a565b634e487b7160e01b600052603260045260246000fd5b601f8211156121f257600081815260208120601f850160051c810160208610156128d65750805b601f850160051c820191505b81811015611af9578281556001016128e2565b815167ffffffffffffffff81111561290f5761290f6123f9565b6129238161291d8454612711565b846128af565b602080601f83116001811461295857600084156129405750858301515b600019600386901b1c1916600185901b178555611af9565b600085815260208120601f198616915b8281101561298757888601518255948401946001909101908401612968565b50858210156129a55787850151600019600388901b60f8161c191681555b5050505050600190811b01905550565b600082516129c7818460208701612302565b9190910192915050565b6060815260006129e46060830186612326565b82810360208401526129f68186612326565b91505082604083015294935050505056fea264697066735822122000cd4b9876ae44b78c412fa54b23c67c408ae23c57a9256a114d6969e54b3df264736f6c63430008130033",
  "linkReferences": {},
  "deployedLinkReferences": {}
}