{
  "_format": "hh-sol-artifact-1",
  "contractName": "RewardsMinter",
  "sourceName": "contracts/RewardsMinter.sol",
  "abi": [
    {
      "inputs": [
        {
          "internalType": "address",
          "name": "_auraToken",
          "type": "address"
        },
        {
          "internalType": "address",
          "name": "_usdc",
          "type": "address"
        }
      ],
      "stateMutability": "nonpayable",
      "type": "constructor"
    },
    {
      "anonymous": false,
      "inputs": [
        {
          "indexed": true,
          "internalType": "address",
          "name": "user",
          "type": "address"
        },
        {
          "indexed": false,
          "internalType": "uint256",
          "name": "auraAmount",
          "type": "uint256"
        },
        {
          "indexed": false,
          "internalType": "uint256",
          "name": "usdcAmount",
          "type": "uint256"
        },
        {
          "indexed": false,
          "internalType": "string",
          "name": "transactionHash",
          "type": "string"
        }
      ],
      "name": "ConversionCompleted",
      "type": "event"
    },
    {
      "anonymous": false,
      "inputs": [
        {
          "indexed": true,
          "internalType": "address",
          "name": "user",
          "type": "address"
        },
        {
          "indexed": false,
          "internalType": "uint256",
          "name": "auraAmount",
          "type": "uint256"
        },
        {
          "indexed": false,
          "internalType": "uint256",
          "name": "usdcAmount",
          "type": "uint256"
        }
      ],
      "name": "ConversionRequested",
      "type": "event"
    },
    {
      "anonymous": false,
      "inputs": [
        {
          "indexed": true,
          "internalType": "address",
          "name": "minter",
          "type": "address"
        }
      ],
      "name": "MinterAuthorized",
      "type": "event"
    },
    {
      "anonymous": false,
      "inputs": [
        {
          "indexed": true,
          "internalType": "address",
          "name": "minter",
          "type": "address"
        }
      ],
      "name": "MinterRevoked",
      "type": "event"
    },
    {
      "anonymous": false,
      "inputs": [
        {
          "indexed": true,
          "internalType": "address",
          "name": "previousOwner",
          "type": "address"
        },
        {
          "indexed": true,
          "internalType": "address",
          "name": "newOwner",
          "type": "address"
        }
      ],
      "name": "OwnershipTransferred",
      "type": "event"
    },
    {
      "anonymous": false,
      "inputs": [
        {
          "indexed": false,
          "internalType": "address",
          "name": "account",
          "type": "address"
        }
      ],
      "name": "Paused",
      "type": "event"
    },
    {
      "anonymous": false,
      "inputs": [
        {
          "indexed": true,
          "internalType": "address",
          "name": "user",
          "type": "address"
        },
        {
          "indexed": false,
          "internalType": "uint256",
          "name": "amount",
          "type": "uint256"
        },
        {
          "indexed": false,
          "internalType": "string",
          "name": "rewardType",
          "type": "string"
        }
      ],
      "name": "RewardMinted",
      "type": "event"
    },
    {
      "anonymous": false,
      "inputs": [
        {
          "indexed": false,
          "internalType": "uint256",
          "name": "queryReward",
          "type": "uint256"
        },
        {
          "indexed": false,
          "internalType": "uint256",
          "name": "insightReward",
          "type": "uint256"
        },
        {
          "indexed": false,
          "internalType": "uint256",
          "name": "contributionReward",
          "type": "uint256"
        }
      ],
      "name": "RewardRatesUpdated",
      "type": "event"
    },
    {
      "anonymous": false,
      "inputs": [
        {
          "indexed": false,
          "internalType": "address",
          "name": "account",
          "type": "address"
        }
      ],
      "name": "Unpaused",
      "type": "event"
    },
    {
      "inputs": [],
      "name": "auraToken",
      "outputs": [
        {
          "internalType": "contract IAuraToken",
          "name": "",
          "type": "address"
        }
      ],
      "stateMutability": "view",
      "type": "function"
    },
    {
      "inputs": [
        {
          "internalType": "address",
          "name": "_minter",
          "type": "address"
        }
      ],
      "name": "authorizeMinter",
      "outputs": [],
      "stateMutability": "nonpayable",
      "type": "function"
    },
    {
      "inputs": [
        {
          "internalType": "address",
          "name": "",
          "type": "address"
        }
      ],
      "name": "authorizedMinters",
      "outputs": [
        {
          "internalType": "bool",
          "name": "",
          "type": "bool"
        }
      ],
      "stateMutability": "view",
      "type": "function"
    },
    {
      "inputs": [
        {
          "internalType": "address",
          "name": "user",
          "type": "address"
        }
      ],
      "name": "getUserRewards",
      "outputs": [
        {
          "internalType": "uint256",
          "name": "",
          "type": "uint256"
        }
      ],
      "stateMutability": "view",
      "type": "function"
    },
    {
      "inputs": [
        {
          "internalType": "address",
          "name": "_minter",
          "type": "address"
        }
      ],
      "name": "isMinterAuthorized",
      "outputs": [
        {
          "internalType": "bool",
          "name": "",
          "type": "bool"
        }
      ],
      "stateMutability": "view",
      "type": "function"
    },
    {
      "inputs": [
        {
          "internalType": "address",
          "name": "",
          "type": "address"
        }
      ],
      "name": "lastMintTime",
      "outputs": [
        {
          "internalType": "uint256",
          "name": "",
          "type": "uint256"
        }
      ],
      "stateMutability": "view",
      "type": "function"
    },
    {
      "inputs": [
        {
          "internalType": "address",
          "name": "user",
          "type": "address"
        }
      ],
      "name": "mintContributionReward",
      "outputs": [],
      "stateMutability": "nonpayable",
      "type": "function"
    },
    {
      "inputs": [
        {
          "internalType": "address",
          "name": "user",
          "type": "address"
        }
      ],
      "name": "mintInsightReward",
      "outputs": [],
      "stateMutability": "nonpayable",
      "type": "function"
    },
    {
      "inputs": [
        {
          "internalType": "address",
          "name": "user",
          "type": "address"
        }
      ],
      "name": "mintQueryReward",
      "outputs": [],
      "stateMutability": "nonpayable",
      "type": "function"
    },
    {
      "inputs": [
        {
          "internalType": "address",
          "name": "user",
          "type": "address"
        }
      ],
      "name": "mintReferralReward",
      "outputs": [],
      "stateMutability": "nonpayable",
      "type": "function"
    },
    {
      "inputs": [],
      "name": "owner",
      "outputs": [
        {
          "internalType": "address",
          "name": "",
          "type": "address"
        }
      ],
      "stateMutability": "view",
      "type": "function"
    },
    {
      "inputs": [],
      "name": "pause",
      "outputs": [],
      "stateMutability": "nonpayable",
      "type": "function"
    },
    {
      "inputs": [],
      "name": "paused",
      "outputs": [
        {
          "internalType": "bool",
          "name": "",
          "type": "bool"
        }
      ],
      "stateMutability": "view",
      "type": "function"
    },
    {
      "inputs": [],
      "name": "renounceOwnership",
      "outputs": [],
      "stateMutability": "nonpayable",
      "type": "function"
    },
    {
      "inputs": [
        {
          "internalType": "address",
          "name": "_minter",
          "type": "address"
        }
      ],
      "name": "revokeMinter",
      "outputs": [],
      "stateMutability": "nonpayable",
      "type": "function"
    },
    {
      "inputs": [],
      "name": "rewardRates",
      "outputs": [
        {
          "internalType": "uint256",
          "name": "queryReward",
          "type": "uint256"
        },
        {
          "internalType": "uint256",
          "name": "insightReward",
          "type": "uint256"
        },
        {
          "internalType": "uint256",
          "name": "contributionReward",
          "type": "uint256"
        },
        {
          "internalType": "uint256",
          "name": "referralReward",
          "type": "uint256"
        },
        {
          "internalType": "uint256",
          "name": "minMintAmount",
          "type": "uint256"
        }
      ],
      "stateMutability": "view",
      "type": "function"
    },
    {
      "inputs": [
        {
          "internalType": "address",
          "name": "",
          "type": "address"
        }
      ],
      "name": "rewardsMinted",
      "outputs": [
        {
          "internalType": "uint256",
          "name": "",
          "type": "uint256"
        }
      ],
      "stateMutability": "view",
      "type": "function"
    },
    {
      "inputs": [
        {
          "internalType": "address",
          "name": "",
          "type": "address"
        }
      ],
      "name": "totalRewardsEarned",
      "outputs": [
        {
          "internalType": "uint256",
          "name": "",
          "type": "uint256"
        }
      ],
      "stateMutability": "view",
      "type": "function"
    },
    {
      "inputs": [
        {
          "internalType": "address",
          "name": "newOwner",
          "type": "address"
        }
      ],
      "name": "transferOwnership",
      "outputs": [],
      "stateMutability": "nonpayable",
      "type": "function"
    },
    {
      "inputs": [],
      "name": "unpause",
      "outputs": [],
      "stateMutability": "nonpayable",
      "type": "function"
    },
    {
      "inputs": [
        {
          "internalType": "uint256",
          "name": "_queryReward",
          "type": "uint256"
        },
        {
          "internalType": "uint256",
          "name": "_insightReward",
          "type": "uint256"
        },
        {
          "internalType": "uint256",
          "name": "_contributionReward",
          "type": "uint256"
        },
        {
          "internalType": "uint256",
          "name": "_referralReward",
          "type": "uint256"
        }
      ],
      "name": "updateRewardRates",
      "outputs": [],
      "stateMutability": "nonpayable",
      "type": "function"
    },
    {
      "inputs": [],
      "name": "usdc",
      "outputs": [
        {
          "internalType": "contract IUSDCToken",
          "name": "",
          "type": "address"
        }
      ],
      "stateMutability": "view",
      "type": "function"
    }
  ],
  "bytecode": "0x610120604052678ac7230489e8000060808190526802b5e3af16b188000060a081905268056bc75e2d6310000060c081905268015af1d78b58c4000060e0819052670de0b6b3a764000061010081905260049490945560059290925560065560075560085534801561007057600080fd5b50604051610f73380380610f7383398101604081905261008f91610218565b610098336101ac565b600180556002805460ff191690556001600160a01b0382166101015760405162461bcd60e51b815260206004820152601a60248201527f496e76616c6964204155524120746f6b656e206164647265737300000000000060448201526064015b60405180910390fd5b6001600160a01b0381166101575760405162461bcd60e51b815260206004820152601460248201527f496e76616c69642055534443206164647265737300000000000000000000000060448201526064016100f8565b60028054610100600160a81b0319166101006001600160a01b0394851602179055600380546001600160a01b03191691909216179055336000908152600c60205260409020805460ff1916600117905561024b565b600080546001600160a01b038381166001600160a01b0319831681178455604051919092169283917f8be0079c531659141344cd1fd0a4f28419497f9722a3daafe3b4186f6b6457e09190a35050565b80516001600160a01b038116811461021357600080fd5b919050565b6000806040838503121561022b57600080fd5b610234836101fc565b9150610242602084016101fc565b90509250929050565b610d198061025a6000396000f3fe608060405234801561001057600080fd5b50600436106101425760003560e01c80638456cb59116100b8578063b19c4e6d1161007c578063b19c4e6d14610305578063c148b23314610318578063cfbd48851461032b578063e4f24cb01461033e578063eb41c8221461035e578063f2fde38b1461037e57600080fd5b80638456cb591461026f5780638da5cb5b146102775780639cc9ccb614610288578063a88a5c16146102a0578063aa2fe91b146102e257600080fd5b8063477ba6481161010a578063477ba648146101de5780634aeef467146101f15780635c975abb146102045780636132fb161461021b5780636aa71d1814610247578063715018a61461026757600080fd5b8063078b0fb7146101475780630c984832146101835780631dd5109e146101985780633e413bee146101ab5780633f4ba83a146101d6575b600080fd5b610170610155366004610b75565b6001600160a01b031660009081526009602052604090205490565b6040519081526020015b60405180910390f35b610196610191366004610b75565b610391565b005b6101966101a6366004610ba5565b610432565b6003546101be906001600160a01b031681565b6040516001600160a01b03909116815260200161017a565b610196610495565b6101966101ec366004610b75565b6104a7565b6101966101ff366004610b75565b610545565b60025460ff165b604051901515815260200161017a565b61020b610229366004610b75565b6001600160a01b03166000908152600c602052604090205460ff1690565b610170610255366004610b75565b600b6020526000908152604090205481565b6101966105d9565b6101966105eb565b6000546001600160a01b03166101be565b6002546101be9061010090046001600160a01b031681565b6004546005546006546007546008546102ba949392919085565b604080519586526020860194909452928401919091526060830152608082015260a00161017a565b61020b6102f0366004610b75565b600c6020526000908152604090205460ff1681565b610196610313366004610b75565b6105fb565b610196610326366004610b75565b61068e565b610196610339366004610b75565b610726565b61017061034c366004610b75565b60096020526000908152604090205481565b61017061036c366004610b75565b600a6020526000908152604090205481565b61019661038c366004610b75565b610777565b6103996107ed565b6001600160a01b0381166103e65760405162461bcd60e51b815260206004820152600f60248201526e496e76616c6964206164647265737360881b60448201526064015b60405180910390fd5b6001600160a01b0381166000818152600c6020526040808220805460ff19166001179055517f83b05b6735acd4b85e3bded8e72c851d1a87718f81e3c8e6f0c9d9a2baa88e469190a250565b61043a6107ed565b600484905560058390556006829055600781905560408051858152602081018590529081018390527fa4db43d5d1427f29f22bb5a0b1345e07386d1092109a1aab4820afab45cd4df99060600160405180910390a150505050565b61049d6107ed565b6104a5610847565b565b6104af610899565b6104b76108f2565b336000908152600c602052604090205460ff166104e65760405162461bcd60e51b81526004016103dd90610bd7565b6001600160a01b03811661050c5760405162461bcd60e51b81526004016103dd90610bff565b600454604080518082019091526005815264717565727960d81b60208201526105389083908390610938565b5061054260018055565b50565b61054d610899565b6105556108f2565b336000908152600c602052604090205460ff166105845760405162461bcd60e51b81526004016103dd90610bd7565b6001600160a01b0381166105aa5760405162461bcd60e51b81526004016103dd90610bff565b6007546040805180820190915260088152671c9959995c9c985b60c21b60208201526105389083908390610938565b6105e16107ed565b6104a56000610a9f565b6105f36107ed565b6104a5610aef565b610603610899565b61060b6108f2565b336000908152600c602052604090205460ff1661063a5760405162461bcd60e51b81526004016103dd90610bd7565b6001600160a01b0381166106605760405162461bcd60e51b81526004016103dd90610bff565b6005546040805180820190915260078152661a5b9cda59da1d60ca1b60208201526105389083908390610938565b610696610899565b61069e6108f2565b336000908152600c602052604090205460ff166106cd5760405162461bcd60e51b81526004016103dd90610bd7565b6001600160a01b0381166106f35760405162461bcd60e51b81526004016103dd90610bff565b60065460408051808201909152600c81526b31b7b73a3934b13aba34b7b760a11b60208201526105389083908390610938565b61072e6107ed565b6001600160a01b0381166000818152600c6020526040808220805460ff19169055517f44f4322f8daa225d5f4877ad0f7d3dfba248a774396f3ca99405ed40a044fe819190a250565b61077f6107ed565b6001600160a01b0381166107e45760405162461bcd60e51b815260206004820152602660248201527f4f776e61626c653a206e6577206f776e657220697320746865207a65726f206160448201526564647265737360d01b60648201526084016103dd565b61054281610a9f565b6000546001600160a01b031633146104a55760405162461bcd60e51b815260206004820181905260248201527f4f776e61626c653a2063616c6c6572206973206e6f7420746865206f776e657260448201526064016103dd565b61084f610b2c565b6002805460ff191690557f5db9ee0a495bf2e6ff9c91a7834c1ba4fdd244a5e8aa4e537bd38aeae4b073aa335b6040516001600160a01b03909116815260200160405180910390a1565b6002600154036108eb5760405162461bcd60e51b815260206004820152601f60248201527f5265656e7472616e637947756172643a207265656e7472616e742063616c6c0060448201526064016103dd565b6002600155565b60025460ff16156104a55760405162461bcd60e51b815260206004820152601060248201526f14185d5cd8589b194e881c185d5cd95960821b60448201526064016103dd565b6008548210156109815760405162461bcd60e51b8152602060048201526014602482015273416d6f756e742062656c6f77206d696e696d756d60601b60448201526064016103dd565b6002546040516334ff261960e21b81526101009091046001600160a01b03169063d3fc9864906109b990869086908690600401610c6b565b600060405180830381600087803b1580156109d357600080fd5b505af11580156109e7573d6000803e3d6000fd5b505050506001600160a01b03831660009081526009602052604081208054849290610a13908490610c9b565b90915550506001600160a01b0383166000908152600a602052604081208054849290610a40908490610c9b565b90915550506001600160a01b0383166000818152600b602052604090819020429055517f765f02a4009bbabeb5bcacb42308293ab54fa68b299d9cf67bc945e839be966090610a929085908590610cc2565b60405180910390a2505050565b600080546001600160a01b038381166001600160a01b0319831681178455604051919092169283917f8be0079c531659141344cd1fd0a4f28419497f9722a3daafe3b4186f6b6457e09190a35050565b610af76108f2565b6002805460ff191660011790557f62e78cea01bee320cd4e420270b5ea74000d11b0c9f74754ebdbfc544b05a25861087c3390565b60025460ff166104a55760405162461bcd60e51b815260206004820152601460248201527314185d5cd8589b194e881b9bdd081c185d5cd95960621b60448201526064016103dd565b600060208284031215610b8757600080fd5b81356001600160a01b0381168114610b9e57600080fd5b9392505050565b60008060008060808587031215610bbb57600080fd5b5050823594602084013594506040840135936060013592509050565b6020808252600e908201526d139bdd08185d5d1a1bdc9a5e995960921b604082015260600190565b6020808252600c908201526b24b73b30b634b2103ab9b2b960a11b604082015260600190565b6000815180845260005b81811015610c4b57602081850181015186830182015201610c2f565b506000602082860101526020601f19601f83011685010191505092915050565b60018060a01b0384168152826020820152606060408201526000610c926060830184610c25565b95945050505050565b80820180821115610cbc57634e487b7160e01b600052601160045260246000fd5b92915050565b828152604060208201526000610cdb6040830184610c25565b94935050505056fea264697066735822122081384a806ba7759a2d47b89dcf0e44326919c5f5c3dfc66d50ab9fa9c908802b64736f6c63430008130033",
  "linkReferences": {},
  "deployedLinkReferences": {}
}